:020000041000EA
:1000000000B5324B212058609868022188439860DF
:10001000D860186158612E4B002199600221596106
:100020000121F02299502B49196001219960352056
:1000300000F044F80222904214D00621196600F024
:1000400034F8196E01211966002018661A6600F04E
:100050002CF8196E196E196E052000F02FF8012189
:100060000842F9D1002199601B49196000215960AB
:100070001A491B48016001219960EB211966A021F2
:10008000196600F012F800219960164914480160C1
:100090000121996001BC002800D000471248134993
:1000A000086003C880F30888084703B5996A0420EC
:1000B0000142FBD001200142F8D103BD02B5186610
:1000C0001866FFF7F2FF186E186E02BD00000240BE
:1000D000000000180000070000035F00212200005C
:1000E000F4000018222000A00001001008ED00E03C
:1000F00000000000000000000000000074B24E7A12
:1001000000200420F7010010CB010010CD010010E9
:10011000C9010010C9010010C9010010C901001077
:10012000C9010010C9010010C9010010CF01001061
:10013000C9010010C9010010D1010010D301001045
:10014000C1010010C1010010C1010010C101001067
:10015000C1010010C1010010C1010010C101001057
:10016000C1010010C1010010C1010010C101001047
:10017000C1010010C1010010C1010010C101001037
:10018000C1010010C1010010C1010010C101001027
:10019000C1010010C1010010C1010010C101001017
:1001A000C1010010C1010010C1010010C101001007
:1001B000C1010010C1010010C1010010C1010010F7
:1001C000EFF30580103800BE00BE00BE00BE00BECA
:1001D00000BE00BEF2EB8871F8FA031014FB0310A6
:1001E0003802001090A31AE71E481F49086006C88D
:1001F00081F3088810471D480068002801D019487D
:10020000F3E70DA40ECC002902D000F012F8F9E7B4
:100210001749184A002000E001C19142FCD116495B
:100220008847164988471649884700BEFDE701C937
:1002300001C29A42FBD3704714FB0310C000002098
:10024000D005002024000410000004200000042039
:1002500024000410001004200010042000000000FE
:10026000704700000000000008ED00E0000000D032
:10027000D005002038140020093C0010D5020010E1
:10028000013C0010F8B5C04606480749091A8B1012
:10029000C90FC91810B5491003D0044B002B00D06A
:1002A000984710BDD0050020D005002000000000B8
:1002B000054B10B5002B03D00449054800E000BFF2
:1002C000FFF7E2FF10BDC04600000000F012002062
:1002D000747E001010B503F0DBFE00280ED1012162
:1002E000002003F0C5FE642001F014F80021002076
:1002F00003F0BEFE642001F00DF8F0E701F0D0FA43
:10030000EDE7C046094A83009A1810B514684022E8
:10031000544080322240064CC000A44663441A6018
:10032000044B9C466044416010BDC04604C001407F
:1003300004D0014000400140074B8000C3181B68F7
:10034000C90092000A435A400C231340034A9446C2
:10035000604403607047C04604C0014004D00140BF
:100360008000002905D0064B9C46022360440360B0
:100370007047044B9C46022360440360F8E7C04684
:1003800004E0014004F00140D0231B061B6830B597
:100390000500584243412F205B4283430E48EC083E
:1003A0008446072028408000814020000B4D3C30CF
:1003B00063448000A40041511B19002A05D080220B
:1003C000920194466344196030BDC0229201944664
:1003D00063441960F8E7C0463041014000400140E5
:1003E000D023F0B5C6461B0698461B680C4F9B00F1
:1003F0001600FA5804000D0000B5104209D129007A
:1004000014430D203200FC5000F05CF980BCB8466B
:10041000F0BD01F045FA43461B689B00FA58EEE731
:100420001813002010B504000D2000F045FAD02369
:100430001B061B6802499B005A58A2435A5010BD24
:10044000181300200123D022834012069362936187
:10045000094A83009A1811684022514080320A40AC
:100460000649C0008C4663441A60054B9C46052330
:10047000604443607047C04604C0014004D001405E
:10048000004001400FB400B5084883B003F02CFDD4
:10049000049B002B07D005A91800019103F096FBDF
:1004A000034803F021FD012003F0A8FB787E001033
:1004B000F87F0010EFF3108072B6034A1368002B28
:1004C000FCD0BFF35F8F70472C0100D0BFF35F8F6C
:1004D0000022024B1A6080F3108870472C0100D074
:1004E00070B5EFF3108C72B60D4D2B68002BFCD05D
:1004F000BFF35F8F0724CB08C618C05C01230C40F4
:10050000A3401C000440034207D118433070BFF3DE
:100510005F8F2C608CF3108870BD1000FFF7B2FF66
:100520002C0100D0F8B54746CE46884680B5EFF39B
:10053000108C72B61C4D2C68002CFCD0BFF35F8F62
:100540009A4222D807210126894602E001329342CD
:1005500018D34D4637001540AF40D4080119045D4B
:100560002742F3D110003C430C70BFF35F8F002291
:100570000D4B1A608CF3108800280EDBC0BCB94606
:10058000B046F8BD01204042EFE7BFF35F8F002384
:100590002B608CF31088012040424346002BEDD0A5
:1005A0000898FFF76FFFC0462C0100D030B5EFF37D
:1005B000108C72B60A4C2368002BFCD0BFF35F8FFF
:1005C000072301220B409A40CD08435D93434355D6
:1005D000BFF35F8F002323608CF3108830BDC046CB
:1005E0002C0100D0044A1078431CDBB2172B00D931
:1005F000102313707047C046180500200021044BDB
:10060000044ABFF35F8F02C39342FAD17047C046DA
:10061000000100D0800100D0054B064A1360064A55
:10062000136053609360D3601361536193617047AB
:100630008080808000E400E004E400E01F23184094
:100640001E3B8340002905D0C021044A4900535075
:1006500013607047802201498B50FAE700E100E007
:1006600001238340014A13607047C04600E200E066
:1006700070B50D00EFF3108672B60F4A1368002BA9
:10068000FCD0BFF35F8F0D4B10309B6884001B596B
:100690000B4A934203D09D4201D001F001F9074B70
:1006A0009B681D51BFF35F8FBFF35F8F0022024B2A
:1006B0001A6086F3108870BD240100D000ED00E0C0
:1006C000C1010010F0B557464E46DE464546E0B53E
:1006D00085B0060000911700EFF3108B72B66A4ADE
:1006E0001368002BFCD0BFF35F8F0025674B5D576D
:1006F0009A46002D00DAA9E06B00654C01935B1966
:100700009B009846A146C1444B4652469B79103601
:100710001370604BB6009B6899590B1B2F2B33D974
:100720005D4B994200D0ACE0019B42469C465B4B3E
:100730006544AD0063535A4B0232A218043B9B1A26
:100740001B05584A5B0D651913436B80564B0121FD
:10075000AB80FF23AB71009BEF71AB604B460B434B
:1007600019004C4B9B689951BFF35F8FBFF35F8FAC
:100770000022454B1A608BF3108805B0F0BCBB46D5
:10078000B246A946A046F0BD01200A008243D379B3
:100790008C46BB4231D84546130044491B1B5B4184
:1007A0005943090D3D4B63533D4B02356519043BDD
:1007B0005B1B1B053B4D5B0D2B43AA464D466B80D7
:1007C0000425AC465546E044131F44441B1B1B053F
:1007D0005B0D1D434B46997100999D809960494678
:1007E000DF71334B01431360BBE75800C018800032
:1007F0002018C179B9422FD902000623D356002B05
:10080000F3DA02932B4B61460393131D9A4604239C
:100810005B429C46E14450464B461B1A1B055B0D50
:100820009C46204B9571984663464046034393800F
:10083000019B5A199200039BA418A380029B1C4A97
:10084000A371009B2260E771A3608AE701F028F89A
:10085000002553465D574FE7908802934005131DCE
:100860009A46031561469C464046D444634604308C
:100870002018181AE0230005400D1B0218430390AE
:10088000C5E701F00DF84FE7240100D03514002032
:100890001C05002000ED00E0C101001000A1FFFFD9
:1008A0004C05002000E0FFFF01BDFFFFAAAA0000E9
:1008B0000148804701BD0000F0B5DE4657464E4670
:1008C0004546E0B50C0083B0EFF3108872B6634A7A
:1008D0001368002BFCD0BFF35F8F614B61499A68AE
:1008E000030010339F00D55901938D4243D0A54298
:1008F00054D05D4EAA1B2F2A3DD85C4B9B461B68EB
:10090000994601231A009C4682404B4613401F2201
:1009100099466346024093409A4680225B46504681
:100920009850BFF35F8FEFF305839B46002B37D0C2
:10093000019B5B4501D000F0B3FF01232A009A43DD
:100940009068844208D176E04B005B189B00F31856
:100950009868844236D01A00062151560029F3DAED
:10096000844254D04B46002B27D0C02251463F4BE7
:100970005200995019603A4B9B68DD51BFF35F8F6D
:10098000BFF35F8F0022354B1A6088F3108803B0E5
:10099000F0BCBB46B246A946A046F0BD0D00EAE752
:1009A0002A0063469A4390688442D5D106201056A7
:1009B000130000280ADA0D0031E0802351462B4A4B
:1009C000D150D8E706201856002821DB4200111824
:1009D000890074188B46A1689960E179D971062164
:1009E00061569971002924DBA488F11A6405241545
:1009F0005C44091909051E4C490D214399801318BF
:100A00001C4A9B001178F31899711070AAE7130023
:100A10005946002914D1FF31917117499180154928
:100A20000A789A71154A9B1B5B415A43120D0A7052
:100A300098E71149E2E70620105613000028C5DAAE
:100A40000F4A1049D21A083A5002400D01439980CA
:100A50000D4952080A43DA8084E7C046240100D0D9
:100A600000ED00E0C10100101C05002000E100E0E5
:100A700000E0FFFF3514002001BDFFFFAAAA00001F
:100A80005605002000F0FFFF00F8FFFF10B58308B7
:100A9000040003202040FF24054AC00094468440FF
:100AA00081409B0063441A68A2430A431A6010BD48
:100AB00000E400E070B501240443EFF30581EFF397
:100AC000108C72B6214A1368002BFCD0BFF35F8FE5
:100AD0001F4B05001F4AED1A6D416A43120D1E4D52
:100AE0008900AE6852B27658A6421CD006215956EB
:100AF00091421CD012215956914222D01E215956A2
:100B0000914220D02A2159560324914210D0134BF0
:100B100019781A708171BFF35F8F00220B4B1A6036
:100B20008CF3108870BDAB680D4C5C50EFE700246F
:100B30006100091989005B18FF21997109499980A1
:100B4000E5E70124F4E70224F2E7C046240100D0DF
:100B50001C050020AAAA000000ED00E035140020CA
:100B6000C101001001BDFFFF1F2110B5091A024885
:100B7000FFF71CFD10BDC0463614002010B5084B11
:100B8000084C82B001000093002205232000FFF7EB
:100B9000C9FC002801DB1F23181A02B010BDC04693
:100BA000887E00103614002070B504000E00150079
:100BB000FFF718FD0100200000F006F8A680E58090
:100BC000BFF35F8F70BDC046024B9C4661448900F5
:100BD000016070474000003470B5114C114DAC42BB
:100BE0000FD2FF262368002B0CD0FFF7FBFC01007F
:100BF0002000FFF7E9FFA680BFF35F8F0834AC4207
:100C0000F0D370BDFFF7EEFC01002000FFF7DCFF22
:100C10002671BFF35F8F0834AC42E3D3F1E7C046DF
:100C2000C8050020D005002010B50400FFF7DAFC4D
:100C300001002000FFF7C8FFFF23A380BFF35F8FF1
:100C400010BDC0460A4B1968EFF3108072B60A68EF
:100C5000002AFCD0BFF35F8F1B68BFF35F8F0022B9
:100C60001A6080F3108840BF002000217047C04602
:100C70002C140020F0B5DE4657464E464546E0B5FA
:100C800087B0EFF30583032201251A4095409100B8
:100C90008846A946B14B03925C58B14B1D60B14BDD
:100CA00004934B46B04843630823E55E002D37DAD2
:100CB000A3881BB2002B00DBADE0A379002B00D092
:100CC000EEE00823E15E002920DB4B0062695B183F
:100CD000DB00D3189E68DD68731C00D10DE1A248CB
:100CE00001004144826A0B69B71A9B1A9F4215D3CF
:100CF0000123026A039883401A420FD09A4800F0F9
:100D000017FC8D4202DCCCD18642CAD940BF07B065
:100D1000F0BCBB46B246A946A046F0BD0E61EDE769
:100D200062696B0092465B19DB009A4453469E68E9
:100D3000DF6800F0FDFB8F42BADC00D1FFE0002F3E
:100D400000DAE4E05246534652691B699346049A1E
:100D5000934200D1D5E052460821605E52880004DB
:100D6000594610439847009001910099019A0B0051
:100D70001000134300D1CAE013000A00B61A9F41C5
:100D8000002806DB784800F0D3FB009E019F361850
:100D90004F4153469E60DF6000229A5E002A00DACF
:100DA00086E7530099186069C900411802938B685F
:100DB000C9689B46B94200DD7AE702D1B34200D947
:100DC00076E708239C46A444059565462281A446FF
:100DD000029B2C0006E053009918C90041188D6849
:100DE000C968AB469B18DB00C318B94206DC00D1CA
:100DF000AFE01C000023E25E002AECDA2300644628
:100E00009C4653461A806346059D1D80A3881BB2ED
:100E1000002B00DA51E72269EFF3108172B61368F4
:100E2000002BFCD0BFF35F8F0123A7885B42A38018
:100E30003FB22369BFF35F8F00221A6081F31088ED
:100E4000002F00DA39E72300083322009A4666694A
:100E50007B00DB19DB00F318996850468C460824A8
:100E6000115FDD68002910DB029306E0AB4240D041
:100E70000023E15E2000002906DB4C006418E4003A
:100E80003419E368AB42F1DD029B078000201F5E4E
:100E90001980002FDCDA1400A379002B00D110E7B1
:100EA0000023A37126000823E15E08364B1C00D105
:100EB0002CE7B446656903E084464B1C00D100E78B
:100EC0004B005B18DB00E8180A00E95E43881BB2A0
:100ED000002BF1DA01267642F7178660C7600826F4
:100EE000A35F9342E9D0634619802389038022815E
:100EF000E3E7A3686345BBD9C6E76B1C00D0EEE609
:100F0000FCE65B4658461B69984700281BD15346B0
:100F10001B8822692381EFF3108372B611680029C0
:100F2000FCD0BFF35F8F514662880A8022696580DA
:100F3000BFF35F8F0021116083F31088B8E686420B
:100F400000D8FCE6B4E65B461A685B680092019341
:100F50000BE7B34500D84CE750E7C0460813002024
:100F60003C700540750C00100040054070B52E4CDB
:100F70002569002D04D00A212C48FFF725FE70BDFD
:100F80002B4E0321300000F0C9FAE660FFF72AFB80
:100F9000284B03229C46D02322701B061B6801218C
:100FA0006370254B6044A3600F2380002061022002
:100FB000638063694942A1801980023119864731F3
:100FC0001D83585218315A5275325C399952183271
:100FD0000131995218320131995218320131995226
:100FE000083518329D5202311832995218320131A7
:100FF00099521832013199521832013199521832EE
:10100000013199521832013199520C4B0C49DC6074
:1010100001303562FFF72CFB01210320FFF70EFBA7
:10102000084B1D60A7E7C046640500202C14002073
:101030000040054040000034FFFF1000081300206E
:10104000750C0010386005400048704764050020AA
:10105000F8B51F0008AB1B7804001600002B08D160
:1010600000F06EFA32003B00121A8B41002B00DABE
:1010700052E02269EFF3108072B61368002BFCD0A7
:10108000BFF35F8F0223E15E63694A005218D2000A
:101090009B182269002936DB1D886580BFF35F8FAE
:1010A0000025156080F31088069A9E60DF601A6143
:1010B000079A5A615A8801325204520C101C002AB5
:1010C0001FD082B25880080410432669EFF31087BE
:1010D00072B63268002AFCD0BFF35F8FA2881A80F4
:1010E000A1802369BFF35F8F00221A6087F3108805
:1010F0000A4923788C4601329A40E36863441A60B7
:10110000F8BD0120DDE7BFF35F8F0023136080F39C
:10111000108801204042F3E70020F1E73C20000066
:1011200070B501000469EFF3108C72B620680028D6
:10113000FCD0BFF35F8F02200D5E4C696800401940
:10114000C00024180869002D36DB26884E80BFF3C6
:101150005F8F002606608CF31088E3606388049834
:10116000013320615B0405985B0CA26060611A1C6E
:10117000002B1FD093B22804628018430A69EFF352
:10118000108C72B61368002BFCD0BFF35F8F8B8876
:1011900023808D800B69BFF35F8F00221A608CF370
:1011A00010880B7801329A40CB6808498C4663441A
:1011B0001A6070BD0122DDE7BFF35F8F002303607B
:1011C0008CF3108801204042F3E7C0463C20000029
:1011D00010B543890A1493421ADD53009B184269E3
:1011E000DB00D3180469EFF3108C72B62268002A72
:1011F000FCD0BFF35F8F5A88090494B2090C8A426D
:1012000008D00369BFF35F8F00221A608CF3108847
:10121000002010BD8022120214435C800123026969
:101220008371BFF35F8F002111608CF31088044934
:1012300002788C469340C268012062441360E8E75C
:101240003C200000F0B506000F0006246442E517BC
:10125000C646A4197D4100B582B08D4214D811D084
:1012600000F06EF922002B00121A8B41002B15DCC6
:10127000002B44D03000390000F06CF902B080BC83
:10128000B846F0BD8442EBD90024002500F058F99F
:1012900022002B00121A8B41002BE9DD00F050F9DF
:1012A00022002B00121A8B41002B0ADB0023019332
:1012B000144B2200009314482B00FFF731FF01303C
:1012C000D8D0A04629000024104A1148536A9942F8
:1012D00004D8956A4545CDD29942CBD10568EFF344
:1012E000108C72B62B68002BFCD0BFF35F8F0368A5
:1012F000BFF35F8F1C608CF3108820BFE6E7002AE5
:10130000B8D0CBE7450C0010640500200040054034
:101310002C140020F0B5C64600B582B0040000F0E1
:101320000FF9FA2206000F0020000023002192008E
:1013300000F088FF8019794104000D1E02DA0124B3
:101340002E4D644206267642F71736196F41AF429A
:1013500014D811D000F0F4F832003B00121A8B417F
:10136000002B15DC002B46D02000290000F0F2F8FD
:1013700002B080BCB846F0BDA642EBD900260027DB
:1013800000F0DEF832003B00121A8B41002BE9DD41
:1013900000F0D6F832003B00121A8B41002B0ADB1A
:1013A00000230193164B3200009316483B00FFF7D1
:1013B000B7FE0130D8D000233900B0469C46124A0F
:1013C0001248536A994204D8966A4645CCD299424B
:1013D000CAD10668EFF3108772B63368002BFCD0D1
:1013E000BFF35F8F0368BFF35F8F66461E6087F3AE
:1013F000108820BFE5E7002AB6D0C9E7FFFFFF7FCE
:10140000450C001064050020004005402C1400200D
:10141000F0B557464E46DE464546E0B506000F009D
:1014200085B0EFF3058399468B46002B12D03849DF
:1014300000204B6ABB4206D38A6ADB1B591E8B41D4
:10144000B2424041184305B0F0BCBB46B246A94683
:10145000A046F0BD2F4B9A46DB68984653461B7852
:101460004046039300F064F84246039B04000433B3
:101470009B009B580D001B1A39003000001BA9412E
:10148000894510DC0DD020BF214A0020536A5B45FE
:10149000D9D3926ADB1B591E8B41B242404118439B
:1014A000D1E78342EFD900F04BF832003B00121A2B
:1014B0008B41002B1ADB00230193174B3200009362
:1014C00050463B00FFF72CFE011E0FDD104B5A6A01
:1014D0005A451BD39B6AB34216D35046FFF778FE9A
:1014E0000B4A0020536A5B45ADD3D2E7084A00207F
:1014F000536A5B45A7D30020926ADB1BB24240418E
:101500005A1E934118439EE75A45E6D120BFE4E7AF
:101510000040054064050020450C001010B5024A4B
:101520000248FEF7DDFF10BDA47E0010CC090020AC
:101530000300416A0A00986A596A8A42FAD17047E0
:10154000034B596A0A00986A596A9142FAD1704766
:1015500000400540064A536A9942FCD807D1044B23
:1015600002E05A6A914202D19A6A9042F9D87047D1
:1015700000400540F8B5DE464E4657464546E0B5C4
:101580008B4605000A991800160000F0E1FA0A9B44
:101590006C001F02324B64199C46A40064446368CB
:1015A00081469F4200D967602B1FDBB29846012B12
:1015B00030D9C02380229B01E31812011A60294B05
:1015C000AD0059599A4600291BD17301E0262268C3
:1015D00053401E40802342465B01E3181E60012AEF
:1015E00030D9802380229B01E31812011A605346F0
:1015F0004A4667605A51F0BCBB46B246A946A0466F
:10160000F8BD586900F0A4FA013043001B18033BF1
:10161000FDD2DAE75B46012BCBD1C02303229B012D
:10162000E3181A60023AA3681A42FCD07301E0265C
:101630002268AD0053401E4080230A4A5B01924657
:10164000E3181E605A462168514003220A401A607E
:1016500001225B469A40A3681A42FCD0C1E7C0460B
:1016600000800040D4090020F0B546464F46D646DB
:10167000C0B51F00344B44009C462418A4006444A9
:10168000636888461600FF2B02D880235B006360E6
:10169000031FDBB29A46012B30D9C02380229B0165
:1016A000E31812011A60294B8500595999460029FF
:1016B0001BD17301E026226853401E40802352460E
:1016C0005B01E3181E60012A30D9802380229B0130
:1016D000E31812011A6080235B0063604B465F5180
:1016E000E0BCBA46B146A846F0BD586900F030FAF1
:1016F000013043001B18033BFDD2DAE74346012BC0
:10170000CBD1C02303229B01E3181A60023AA368DD
:101710001A42FCD07301E0262268850053401E4027
:1017200080230A4A5B019146E3181E604246216805
:10173000514003220A401A60012342469340A268A6
:101740001342FCD0C1E7C04600800040D40900200D
:10175000014B8000C0587047D4090020F8B5040040
:1017600021481E0017000D0000F0F2F901003800BA
:1017700000F0EEF9069B36041B031E432368002B82
:1017800020DB1A4B1A49E3185A1E9341802292011A
:1017900094465B421B0B174A1B0363441360164AB3
:1017A00013601F000A689743FBD1144B2560E218B1
:1017B0002123A06013602368002BFCDA0823E66075
:1017C0001360F8BD3F2322681340AB42D9D1A36810
:1017D0001B051B0D8342D4D1EE22E368D2021340D5
:1017E000B342CED1EDE7C046001BB7000040FDBFBD
:1017F00008C0004000E0004000F00040043000005D
:101800008023024A9B000B43D3627047008005404F
:10181000002310B50100988A1B8B984710BDC04665
:10182000162310B50100188802331B88984710BD95
:10183000F8B54746CE4680B50F1E18D014239946FA
:10184000043304000025012698464B461888434679
:1018500021681B88984701C4431E98410135064002
:10186000AF42F2D13000C0BCB946B046F8BD012647
:10187000F8E7C046AA23064A1B0113608D235B00CC
:10188000D3600449044B19605368002BFCDA70479D
:101890000040024000B0FA00006002407047C046BD
:1018A00010B50148FEF7EEFDC87E001070B5074D7B
:1018B000074EB54209D20024013E761BB60808CD7A
:1018C000984723000134B342F9D170BD307E001037
:1018D0006C7E0010054B064A06491A60064A074B03
:1018E0001A6010000B689843FBD1704700E000407D
:1018F000BFCDFBFE08C00040FE7F3C0000F0004072
:10190000044BDB6C002B03D18022034BD2021A6004
:101910007047C046000011504C201150044A054B3E
:101920001A60054A1368DB018033FBD17047C0465B
:10193000FFFFFF0100F0004008C000404022034BC1
:101940009A675A671A67DA667047C04600F0014026
:1019500010B5FEF753FE10BDF8B52749274C284DAA
:10196000641AA6103200302E00D9302228009200CE
:1019700000F0C4FCBC2C3BD830202F232C1964076A
:10198000204A801BE40F9B1B052B16D93700002C27
:1019900002D0B300771CEA50001B33199B004108AA
:1019A000EB18C900C9181A605A6008339942FAD175
:1019B000012303421CD09843C619B300EA50731C9C
:1019C0002F2E15D09B00EA50B31C2E2E10D09B005A
:1019D000EA50F31C2D2E0BD09B00EA50331D2C2E09
:1019E00006D09B00EA50731D2B2E01D09B00EA50BD
:1019F000054B9D60F8BDC04600010010C0010010FD
:101A000000000020C101001000ED00E0002310B52F
:101A1000294C82B0A367FFF72DFF0122274B1A60E4
:101A2000636C012BFCD10322254B1A60224A936B75
:101A3000012BFCD1013300930121224A22480433B7
:101A4000FFF78CFE052301210093204A2048FFF771
:101A500085FE0022022104201E4BFFF705FE002216
:101A6000012105201C4BFFF7FFFD0022002107206C
:101A70001A4BFFF7F9FD002200210820174BFFF752
:101A8000F3FD8023DB000093002200210920134B8B
:101A9000FFF770FD0022104B00210620FFF7E4FD48
:101AA0000420FFF755FE0E4900F052F80100002017
:101AB000FFF7A6FE02B010BD008000403CB0004021
:101AC00030B00040002F685900800240008C8647EB
:101AD00000C00240001BB70040597307006CDC02D5
:101AE00040420F0001480421014B184780050020A7
:101AF00031180010014B9B6818470000800500203A
:101B0000124A936F9B0815D29066D166002905D0C2
:101B1000FFE7FFE7FFE7516F106F704704B58021C3
:101B20000906C2175140002800D0C84306F058F9F2
:101B3000002104BDF0B5146E556E576F166FFFF798
:101B4000E3FF1466556657671667F0BD000000D0C6
:101B5000114A936F9B0813D210665166002905D075
:101B6000FFE7FFE7FFE7516F106F704704B50028EC
:101B700001D00020C04306F033F9002104BDC04667
:101B8000F0B5146E556E576F166FFFF7E5FF1466CC
:101B9000556657671667F0BD000000D094464A4A64
:101BA000926F9208624601D228E0C046F0B5464ED8
:101BB000346E756E776F366F00F020F89446424AA7
:101BC00014665566576716676246F0BD94463E4AEE
:101BD000926F9208624601D254E0C046F0B53A4E88
:101BE000346E756E776F366F00F04CF89446364A57
:101BF00014665566576716676246F0BD002B24DBF6
:101C000011D000293EDA00B5C943404200D101316C
:101C100000F038F8C943404200D10131DB43524261
:101C200000D1013300BD002AEBD1002801D10029E9
:101C300005D00020C90FC90701D1C043410800B534
:101C400006F0BEF80022002300BD00B500290ADB23
:101C5000DB43524200D1013300F014F8C943404243
:101C600000D1013100BDC943404200D10131DB4305
:101C7000524200D1013300F005F8DB43524200D15B
:101C8000013300BD002923D1002B18D1002A0CD02C
:101C9000BC460D4F38667A6600210023FFE7FFE758
:101CA000FFE77A6F386F67467047002801D0074812
:101CB000010000B506F084F80022002300BD0200F8
:101CC0000B00002000217047000000D0FFFFFFFF45
:101CD000002B00D0BFE0130C28D1002AE7D080B43D
:101CE000114F39667A66FFE7FFE730B4040C7B6F6B
:101CF000396F1B0423433B667A66FFE7FFE7FFE784
:101D0000C04684B27B6F3D6F1B0423433B667A66FB
:101D1000FFE7FFE7C04600232C042D0C7A6F386FD5
:101D200000196941B0BC7047000000D0F0B594467E
:101D30000025140E01D112020835140F01D1120131
:101D40000435940F01D192000235D40F01D1520015
:101D50000135D40B0134254F7C66254C3C660E0CB6
:101D600093B2FFE7FFE7FFE73C6F6643360C77036C
:101D7000BE467343DF0B5B04C01AB941130C7343B7
:101D8000DB18C91ACE086643360CB64493B27343C7
:101D90001F0F1B01C01AB941130C73431F0B1B0506
:101DA000C01AB941860D8F023E436643360C092D99
:101DB00024DB520A7243801A7703460A6643360CC4
:101DC00016235B1BDE40DF40BF1964466643821B5F
:101DD0007046043506330100D940A840C01900D32D
:101DE0000131A24206D20023F0BD0000000000D065
:101DF000FFFFFFFF121B0130F3D3F1E709277F1B21
:101E0000FE406446A2B27243801A00D20139220C0D
:101E10007243130C1204821A99410B007046043568
:101E200013370100F940A840801900D30131002B7D
:101E300002D1A2420AD2F0BD013000D30131121BFF
:101E4000FAD2013BF8D1A24200D2F0BD013000D35A
:101E50000131121BF7E7F0B51C0C00D080E00CB488
:101E600000251C0A04D11B02160E3343120208354A
:101E70001C0B04D11B01160F3343120104359C0BBC
:101E800004D19B00960F334392000235DC0B02D144
:101E900092185B4101351C00971864410134464F8C
:101EA0007C66464C3C660E0CFFE7FFE7FFE7C0464A
:101EB0003C6F6643360C7703BE4697B27743C01B30
:101EC00000D20139C01B00D201399FB27743C91B30
:101ED000C91B170C77437E04FF0B801BB941CE084A
:101EE0006643360C0C2D33DBB644120B1F053A4308
:101EF0001B0B97B27743C01B00D201399FB27743C7
:101F0000C91B170C77433E043F0C801BB941860D5B
:101F10008F023E43664329277F1BFE400C3D7746D8
:101F2000AF40BF1930BCA2B2ABB272437343801A48
:101F30009941220C7243130C1204801A9941020039
:101F40000B000137001BA941F9D2781E0021F0BD1A
:101F50000C277F1BFE4077467F0BAF40FF19E0E761
:101F600000245D1C07D0144F7D663966FFE7FFE74C
:101F7000FFE7FFE73C6F95B29EB265436643401BA7
:101F8000B141150C1E0C6543664336042F0C3E43CD
:101F90002D04401BB141994204D202000B002000E5
:101FA0000021F0BD01D19042F7D3801A994101344C
:101FB0009942F2D3F6E70000000000D0FFFFFFFFD8
:101FC00048404140484018B4134B5B68019308BD3A
:101FD00018B4114B1B68019308BD94460F4A926FC9
:101FE000920805D2624618B40B4BDB68019308BD1A
:101FF0000A4AF0B5146E556E576F166F6246FFF7BA
:10200000F2FF064A1466556657671667F0BD18B4A6
:10201000014B9B68019308BD98070020000000D089
:10202000FFB550404240504059404B40594000E0BD
:10203000FFB5154F4C00640D03D0BC4204D10C0316
:1020400014D80020090D09055C00640D03D0BC42C2
:1020500004D11C030AD800221B0D1B0501264B408E
:1020600009D44B4003D58B4200D18242FFBD994237
:10207000FCD19042FFBD0B43DB1803431343F5D063
:10208000C9434918FFBD0000FF07000000B5FFF776
:10209000CFFF804100BDC04600B5FFF7C9FF01D9A1
:1020A000002000BD012000BD00B5FFF7B9FF01D938
:1020B000002000BD012000BD00B5FFF7B1FF804149
:1020C00000BD012040054A00121804D85A00121819
:1020D00001D800207047012070470000002100282F
:1020E00005D17047C1174840401AFAD0C90713B547
:1020F000064B1B6898470CBC441CA2401005120BF1
:102100000349091B09051943114310BD2813002079
:102110001F04000010B54C00620D8023D218DB00B4
:10212000D21A5B057E2A10DD9E3A13DACC1709031A
:10213000490819435242D140640001341532202A23
:1021400005DAD0400843604310BD002010BD0846AA
:10215000604310BDC80FC018013810BD18B4024B41
:102160005B6A019308BD00009807002010B5014884
:10217000FEF788F9D47E0010132370B51D78012D69
:1021800019D014DD1D48FFF74BFB06001C48FFF774
:1021900047FB1C4C80223100200000F0AFF8022DDC
:1021A00006D01948FFF734FB184B186070BD154C6A
:1021B000174BA364F5E7174B124C23606360A360D1
:1021C000E36023616361A361E36123626362A362ED
:1021D000E36223636363A363E36323646364A364CD
:1021E000E36423656365A365E36523666366A366AD
:1021F000E36623676367A367E367D9E75344000097
:1022000053460000980700204C330000281300209C
:10221000192200106D21001007B5604601880A0AD6
:102220000230DF2AFAD1C9B2820804D3028840887A
:102230000004104300E00068014A5050039007BDBD
:102240009807002051434343C9188C46110C83B2B0
:102250004B4310B4040C614392B280B250436243CA
:102260001C041B0C001910BC59411304120CC0189B
:10227000514161447047000010B50148FEF702F972
:10228000D47F0010132310B510481C78FFF7C8FA4C
:102290000100012C0AD003DD80220D4800F02EF849
:1022A0000C48FFF7B5FA0C4B186010BD084C5422CF
:1022B000200000F023F82200084980322368002B18
:1022C00000D1216004349442F8D1E9E7534600007C
:1022D0002C1300204C33000028130020792200101A
:1022E00001480421014B18479005002031180010C7
:1022F000014B1B681847000090050020014B5B68EC
:1023000018470000900500207047C046F8B55746B2
:10231000DE464E464546E0B599460A9B07009A467A
:102320000D9B884693460B9C9B073BD10C9B9C4284
:102330003DD21E1B0B9415000C005E442A004B4638
:10234000013521002020B847B542F7D1A0460B9CAB
:10235000002C20D0454636195346321B013C185DEF
:1023600029004B46B847002CF6D12B003500984683
:102370000D9B9B070FD55B46EC1A0C9BA3420AD919
:10238000464698462A004B46310020200134B84783
:1023900001354445F6D32800F0BCBB46B246A946F9
:1023A000A046F8BD16001500002CD3D1E0E71600BA
:1023B0001500002CCED1EEE7F0B54546DE46574677
:1023C0004E46E0B585B09C4610AB1B78149F9346F3
:1023D00098460F9C129E139DBB074CD4002D42D1F2
:1023E000B44248D201233B4099460E9B013B9A469A
:1023F000302304E0524601341355A64201D9202C63
:10240000F8D14B46002B00D183E00E9B013B99464F
:102410003023A54205D82EE04A4601341355AC427C
:1024200029D0202CF8D1FB060CD57B0554D4A6422C
:1024300063D0A54261D0119B102B50D0022B57D0F6
:10244000202C32D1202301930E9B5A4600930397F0
:1024500063460295FFF75AFF05B0F0BCBB46B24693
:10246000A946A046F0BD01233B40994601233B42CB
:102470002AD1B442B9D3FB061CD57B05DBD4002C92
:10248000D5D1119B102B5BD0119B022B6BD030232D
:1024900001240E9A13704346002B10D17B073ED5C2
:1024A0002B260E9A631C1655CDE7230001343026E7
:1024B0000E9AD654202CC5D04346002BEED02D26A4
:1024C0000E9A631C1655BEE74346002B2FD0013DE4
:1024D000B44200D289E798E7119B102BB2D1BB061A
:1024E00037D5202CAED058230E9A13550134A7E7C8
:1024F000202CA7D02300013407E0631E012CC0D09C
:10250000119A102A31D0022AD1D162260E9AD654BD
:1025100096E7FB06CED57B0500D488E78BE7230042
:102520003E0790D520260E9A013316558BE70C23D3
:102530003B405A1E9341ED1AB44200D255E764E77E
:10254000BB060ED478230E9A0224137030235370E6
:10255000A1E7202C00D175E778230E9A135501349A
:102560006EE75823EFE76033EDE70E9AA61E91461B
:102570004E44BA0602D55822327098E7782232705B
:1025800095E7C04610B5002800D110BD01F062FCEF
:10259000FBE7C0460B0010B5002802D049681B6855
:1025A000984710BDF0B55746DE464E464546E0B565
:1025B00095B083460F00924698461E9A1F9B1000C6
:1025C0001900209EFFF77DFD002800D0EAE11E984B
:1025D0001F990122C54B5242FFF758FD002800D039
:1025E00014E11E981F990122C14B5242FFF764FD6E
:1025F000002800D0E9E01E981F990022BD4BFFF78C
:102600005BFD002800D0C8E01E981F990022BA4B3D
:10261000FFF73CFD002800D0BFE01E981F99002264
:102620000023FFF733FD002800D0E4E000230B93E4
:10263000229B5B0500D406260024302307E01721E7
:1026400006AA013452181355013E202C01D0092E40
:10265000F5D81E981F99FFF75DFDA84BF2009B1857
:102660001A685B68050008920993FFF73BFD0200BA
:102670000B001E981F99FFF7A6FC089A099BFFF70D
:10268000C6FC06900791FFF769FD8146FFF726FD1E
:1026900002000B0006980799FFF795FC0022984B63
:1026A00006900791FFF708FD002800D10DE10123F6
:1026B0009C46E1444846FFF711FD02000B000898D4
:1026C0000999FFF7E9FC002802D00023994601355B
:1026D000002E00D1D9E006954D46B94614E006AA71
:1026E000944617230A216344280001341F19FFF779
:1026F0002FFA3031397028000A21013EFFF728FAFD
:10270000092D00D817E10500202CE8D14F46069D81
:1027100020240CAE06AA17239446634499465B46D0
:10272000B34606930FE04B4628000A210134E61811
:10273000FFF7E6F93031280031700A21FFF7E0F9A0
:10274000051E00D1E4E0202CEDD1069B5E469B46A1
:102750000323229A1340012B18D1219B002B15D063
:102760000B9B002B00D1FDE0219B013B2193202BF3
:102770000CD93023219A07E0172006A90134091843
:102780000B55944200D3CCE0202CF5D1229B019430
:102790000393219B0096029322E0229B52460493CE
:1027A000219B3900039358461E9B1F9C0296009361
:1027B0000194434600F04AF90400200015B0F0BC33
:1027C000BB46B246A946A046F0BD229B5B070FD48C
:1027D00003224C4B2299019203912199009302917B
:1027E0004346524639005846FFF790FD0400E4E79F
:1027F0000422454BEEE71E9A1F9B00200021FFF7A5
:10280000E2FB01231E901F910B9311E7229B54467C
:102810009B0711D1219B042B0ED9219B55469C4629
:102820005E46043C64442A004346013539002020BA
:10283000B047A542F7D1B346344D26002B1F994629
:102840005B46A3461C003200E87843463900013D50
:10285000A04701364D45F6D123005C469B46229B9E
:1028600004349B07A9D55346219AE31A9A42A4D966
:102870005E4615002200434639002020B0475346EB
:102880000134E31A9D42F5D897E72800FFF72AFCA8
:1028900002000B001E981F99FFF795FB0022184BB2
:1028A00006900791FFF7F2FB0CAE002800D031E74D
:1028B000069807990022124BFFF7FEFB002800D074
:1028C00028E7012301359D4324E700220698079954
:1028D0000B4BFFF7DBFB002800D0F9E64B46002B43
:1028E0005CD101239C46E144F2E6C046FFFFEFFFC6
:1028F000FFFFEF7F65CDCD4165CDCDC1F8840010E0
:102900000000E03F307F0010287F0010387F00106B
:10291000069B5E469B460323229A1340012B00D15F
:1029200081E0202C00D131E70B9B002B27D02D23F9
:10293000335501342AE74F46069D202C00D1E7E6A7
:102940003022331907E0172006A9013409180A5567
:10295000202C00D1DCE6A342F5D12E220CAE0134AE
:10296000F254D7E60C23229A134257D0219B013B05
:102970002193A34200D9FCE6202C00D106E7229B3C
:102980005B0703D52B2333550134FFE6229B1B073E
:1029900000D4FBE6202333550134F7E6DB0700D4EF
:1029A00096E69EE7229B55469B0711D1219B032B60
:1029B0000ED9219B54469C465E46033D6544220049
:1029C0004346013439002020B047AC42F7D1B3462A
:1029D000B9465F461C4EEC1C2A00B0784346494677
:1029E0000135B847013EA542F6D1229BBB464F4672
:1029F0009B0700D4E1E65346219AE31A9A4200D895
:102A0000DBE65E4615002200434639002020B04731
:102A100053460134E31A9D42F5D8CEE6219BA342EA
:102A200000D9A6E6B2E6219B002B00D179E70B9BEB
:102A3000002B97D0219B013B21939C4200D298E62A
:102A4000202C00D073E7A1E6347F0010F0B5DE46FD
:102A500057464E464546E0B599B081468B4692466C
:102A60009846229A239B10001900FFF72AFB0028A2
:102A700000D0CAE0229823990122824B5242FFF7EC
:102A80001BFB002800D0C0E02298239901227E4B36
:102A90005242FFF7FBFA002800D0B6E022982399B3
:102AA00000220023FFF7F2FA002800D0C9E1229BA0
:102AB000239C08930994089809998023269ADB009F
:102AC0001A400D928022269C1201144022000B9481
:102AD000269C07000E001C4200D0ADE00B00034313
:102AE00000D0D5E0002A00D00AE222000633249369
:102AF000022313400C930223134200D002E2259BD1
:102B0000042B00D20FE2043B0B93002304250A930D
:102B10000022229823990023FFF7B8FA002800D05A
:102B200003E25A4B269A134004930B9B0393249B76
:102B30000293089B099C00930194594643465246D0
:102B40004846FFF72FFD02002020269B1F27034049
:102B500059424B415B421840531C08935946434627
:102B60004530C8470A9AD317D4185C40D30F0A934C
:102B70006B1E0B9308AB9C460025674401E0202D9B
:102B80000FD020000A21FEF7E3FF01357E19303116
:102B9000317020000A21FEF7DBFF26000400092E19
:102BA000EDD8052306930B9B594605930023049308
:102BB0000A3303930A9B4846029310AB0093089A8A
:102BC00043460195FFF7F8FB0C9B002B2DD0534695
:102BD000C41A259BA34228D94D465F4681461E0054
:102BE000534639001A19202043460134A847A6420B
:102BF000F6D8534648462599C21A0132002391421D
:102C000000D386E1013018180FE0269B0493259B22
:102C10000393249B0293229B239C0093019443469D
:102C2000524659464846FFF7BDFC19B0F0BCBB46BA
:102C3000B246A946A046F0BD01432BD10B9B220012
:102C4000002B00D154E700230A93249B0A9A002406
:102C5000934200DD85E12298239900220023FFF7AB
:102C600015FA002800D035E1269B084A02941A4044
:102C70008023DB0013430493259B0393089B099C4B
:102C8000CBE7C046FFFFEF7FFFFFEFFFFFF7FFFF40
:102C900006232493B44B70009C46400D6044FFF71C
:102CA00021FAB24AB24BFFF7B2F9B24AB24BFFF780
:102CB0008FF93603B14B360B334304000D00380057
:102CC00019000022AE4BFFF77EF9AE4AAE4BFFF77C
:102CD0009EF902000B0020002900FFF779F9FFF7A9
:102CE00019FA0A90FFF7FEF9A84AA94B04000D0053
:102CF000FFF78DF90022A74BFFF76AF9FFF70AFAF1
:102D0000A54A0600A54B20002900FFF780F9040022
:102D100030000D000C96FFF7E5F9A14AA14BFFF733
:102D200076F902000B0020002900FFF74CF90200A1
:102D30000B0006000F00FFF76AF9320004000D00D7
:102D40003B0030003900FFF743F900220E900F914D
:102D5000954B20002900FFF740F90022934BFFF725
:102D600037F902000B0020002900FFF736F9002296
:102D70008F4BFFF72DF902000B0020002900FFF711
:102D80002CF90D008021040032003B000020C90511
:102D9000FFF719F902000B0020002900FFF718F9CE
:102DA00002000B000E980F99FFF717F90022734BE2
:102DB000FFF70EF97F4B0C9C9C46644400222305D0
:102DC000FFF725F906000F0002000B00089809998B
:102DD000FFF75CF900280AD00A9B3000013B39005C
:102DE0000A930022714BFFF7F8F806000F000A9AC9
:102DF000330063323900C62A12D8022226980425ED
:102E000010400B9A0C90002A25D1259B042B05D944
:102E1000002800D0A1E0259B043B0B93042541E052
:102E20000222269810400B9A0C90002A12D1259B62
:102E3000052B76D9002872D1259B0525053B0B93E0
:102E400034E0802212069446229B0893239B63441D
:102E5000099330E605250B4300D1F6E60898099959
:102E6000554A564BFFF720F9002808D008980999D1
:102E70000022534BFFF70AF9002800D0E5E6249B17
:102E8000002B1CD00D9B002B19D0249B013B2493BD
:102E9000259BAB4204D90C9B002B5AD002230C93E8
:102EA00000230B930A9B002B00D131E60898099967
:102EB00032003B00FFF791F80890099128E6259B26
:102EC000AB42EDD90C9B002B43D000230B93023374
:102ED0000C93E7E78020269B3A4A00061A4080239D
:102EE00084460294089C099D2900DB001343049347
:102EF000259B6144220003930B00009201938EE610
:102F00000524A8E600230B930A93023304250C93AF
:102F1000FEE553468C46013B63441B1A72E60223CE
:102F20000C930525C2E70423EDE58020089E099F48
:102F3000000639008446269A224B614413400493CC
:102F40000B9B32000393249B02930B00009201938E
:102F5000F3E5259B5B1B0B93A4E7022304250C934D
:102F6000A0E79C1A013C76E601FCFFFFFB799F502D
:102F70001344D33FB3C8608B288AC63F0000F03F9C
:102F80000000F83F61436F63A787D23F71A37909BF
:102F90004F930A400000E03F1655B5BBB16B0240AD
:102FA000EF39FAFE422EE63F00002C40000024409C
:102FB00000001840FF0300002D431CEBE2361A3FCF
:102FC00080842E41FFF7FFFFF0B5DE4657464E46A0
:102FD0004546E0B5A5B01E002E9B92460C93CD4A07
:102FE000CD4B80468B461A60002900D1EAE10023D0
:102FF00030789946002800D1ECE1C84B4C460B9341
:10300000C74B454657460E930AE0631C984622007C
:103010003B005946A84744463078002800D187E055
:1030200001362528F1D108239A46043B9946023BF4
:103030009846013B00229C460D943078711C030099
:10304000203BDBB2102B03D80B9C9B00E3589F4620
:103050000300303B89460D9C092B3AD90023984642
:103060002A2800D1C1E000239A462E284BD0030025
:10307000683BDBB2122B1ED80E999B00CB589F46A3
:1030800063460E001A43D8E743460E001A43D4E7BE
:103090004B460E001A43D0E710230E001A43CCE72C
:1030A00053460E001A43C8E780235B001A43FF3BD8
:1030B0009C467078E1444E4667284FD82428A4D90E
:1030C0000300253BDBB2422B9FD896499B00CB588F
:1030D0009F46002394461E0000E00131B3009B1977
:1030E0005B001E180878303E0300303B092BF4D9F2
:1030F0000123624689469C460023B0469A460E004C
:10310000E1442E28B3D13021802049428C46C000B2
:10311000024370784B4684446146092900D86CE12B
:103120002A2800D17AE101239C464E46E1449EE7DD
:10313000A146A846BA46CA4503D801235B42534478
:10314000994653464A4659460020C047200025B0BC
:10315000F0BCBB46B246A946A046F0BD0300693BA1
:10316000DBB20D930F2B00D94FE7012199408C461C
:103170006D49894661464B4619400F916346494661
:103180000B4200D028E10D9B0A2B3AD0072B00D030
:103190003BE70C9B190008C98846002B00D14BE186
:1031A00021200243914614A98C461F220F2162441C
:1031B0008C4651460D950C91A24615000F9902E0E0
:1031C00020290CD0130064461C4020003730092C05
:1031D00000D80738013168541A090F2BF0D80C9B1E
:1031E00054460D9D9A460F9133E10C9B02CB8846C5
:1031F000002947DB0C9301239C4670784E46E1443E
:1032000031E70C9B02CB14935346002B00D138E1DD
:103210009C4608780B000C908C44002801D100F0EB
:1032200098FC89466146944603E05A780133002AA7
:1032300001D08B42F9D1494662465B1A0C900F933C
:10324000530500D520E10223180010400D901342D1
:1032500000D1CBE30D930B1BB1469A465E460C980A
:1032600022003B003100A84753460134185D002876
:10327000F6D1B3464E460D9B002B00D0C7E1149B00
:103280000C93C9E60C9301239C462838494202431B
:10329000884670784E46E144E5E670786C2800D1A7
:1032A0007FE180235B001A43FF3B9C46E14402E739
:1032B00080239B001A4301239C467078E144FAE680
:1032C0007078682800D173E180231A437F3B9C46C5
:1032D000E144F0E6672800D103E1472800D15AE134
:1032E000452800D15AE10492072142460C9B0392E3
:1032F000073352468B43190002920CC928000092F2
:1033000001930C9122003B005946FFF79FFB0400FC
:1033100082E6C046C92F0010EC1200205C8300102A
:10332000A0830010EC83001041900000462800D1DB
:10333000DBE00492072142460C9B0392073352467E
:103340008B43190002920CC92800009201930C9142
:1033500022003B005946FFF725F904005CE6631C98
:10336000984622003B0059462520A847444653E68C
:103370000C9B04330D93631C9946920700D422E101
:103380000C9B2200187859463B00A847434644440A
:10339000012B00D885E23300B8462E005F46250099
:1033A0004C46994622004346013439002020B0475C
:1033B000AC42F7D12C00BB46350047464E460D9B2C
:1033C0000C9329E6DB4B3078984600239946002879
:1033D00000D012E60024AEE66F2800D188E000D8C5
:1033E0000BE31023782800D1CFE09A430A239C46B0
:1033F00000230F930A330D9380E05646B1008919DC
:10340000490001330E181878303E0100303909297F
:10341000F4D9B2461E000133994628E60C9B0236C9
:1034200002CB8A46C9435046C917084082460C93CE
:103430003078731C99461AE6102310009843113314
:103440001843814680201300C0000340024200D18F
:10345000A9E64B460693082305935346049310238D
:103460000393002302930F9B220001931CAB009354
:1034700059463B002800FEF79FFF434604000C938B
:10348000CAE501235B42C3E60F9B534501D953466E
:103490000F930223180010400D90134200D1B7E1A2
:1034A0000D93D1460B1B9A463300A1442E002200F7
:1034B0004D460C98B9465F469B4608E04B4639009E
:1034C000541CB0475346185D002877D0220095421F
:1034D000F4D15B46BB464F46A94635004C461E001C
:1034E000C9E680231B011A43FDE620231A4320E787
:1034F00008239C4600230F9308330D93802311006B
:10350000DB0019401A4200D116E10D239A43100046
:10351000802302009B001A401492184200D0C2E19E
:10352000802302005B001A4091460C9A04320F92ED
:10353000184200D0B7E2430600D59FE1030600D44D
:1035400019E30C9B1B880993002B00D0FCE110337E
:103550009843002900D1F7E100239946434605939B
:10356000534604930D9B069003930023D2E0582802
:1035700008D0622867D102239C4600230F930233B0
:103580000D93BBE720231A43103B9C4600230F9367
:1035900010330D93B2E780231B011A4320231A43F3
:1035A000A1E6C0239B001A43F31C9946B07882E53C
:1035B000C0231A43F31C9946B0787CE535005E467B
:1035C000BB464F4657E64346012B00D863E1631ED6
:1035D00043449A463300B9462E005F4655469B4603
:1035E000A24622004B46013439002020B047AC42AD
:1035F000F7D135005E46BB464F46A14654460C9B6C
:103600004A46187859463B004444A847D7E6A146A5
:103610000F9B984500D832E64444E41A3300B8467C
:103620002E005F4625004C46994622004346013451
:1036300039002020B047AC42F7D12C00BB46350002
:1036400047464E461BE680231000DB0018401A4216
:1036500000D10FE1112118008A430D920D9A8023A9
:1036600011009B0019408C461A4269D18023110039
:103670005B00194089460C9904310F911A4200D021
:10368000CAE113005B0600D5F0E013001B0600D46E
:1036900059E20C9B00229B5ED9175A184A4092B2FD
:1036A000D90F0C91002B00D1F9E1100014AA944617
:1036B00042461F23149252466344A84616944D4630
:1036C0000400B946B2461F00159201E0202D0FD02C
:1036D00020000A21FEF73CFA01357E1930313170A5
:1036E00020000A21FEF734FA26000400092EEDD846
:1036F000149B4F46A94645469846159B56469A4602
:10370000169C0D9B069343460593534604930A2348
:1037100003930C9B02934B4601931CAB2200009336
:1037200059463B002800FEF747FE0F9B04000C9310
:1037300072E4C046092300100C239A431000E7E608
:1037400007220C9B07339343013294469C44624604
:103750000C920CCBD90F0F911100194300D191E0BD
:10376000D917139112915140109113995940119109
:1037700010981199129A139B801A994110901191E7
:1037800014AA0023944642469946149252461F3387
:103790006344A846B24616944E46109C119DB94605
:1037A00015921F0001E0202E10D0200029000A22CF
:1037B0000023FEF70BFA013630322B00BA550D000C
:1037C00022000400002BEED1092AECD8149B10949F
:1037D000119545469846159B4F46B14656469A4622
:1037E000169C0D9B069343460593534604930A2368
:1037F00003930F9B02934B4601931CAB2200009353
:1038000059463B002800FEF7D7FD0400FFF704FCF3
:103810000F9B984500D8C1E18023DB000D93434600
:103820000F9A1B199B1A994633002E004D46B94634
:103830005F469B460C9122004B4601343900202004
:10384000B047AC42F7D143460C9901330F930B7844
:1038500035000C935E46BB464F46002B00D10EE56B
:103860000D9B002B00D1F6E4002319E60C9B1B787E
:103870001A0015E710239A430D92EFE60C9B1B7874
:10388000099361E6002399460028AAD1002200236B
:103890001092119374E70C9B2200187859463B0054
:1038A000A8474C468BE50C9AFA3BFF3B07329A43FC
:1038B0000133994691444B460C9313685268159214
:1038C0001A4306D11032904300220992002900D0F9
:1038D00081E06122810600D54122D2B20A9214AA67
:1038E00091460A9A00210A3A149242461792524689
:1038F00018925A460991B3461F311E000F9B494446
:10390000BA4619941A950024674698468946159D2B
:1039100016901B920AE03032D2B24B4601341A554F
:10392000A8454AD0202C4AD006000D003A000023BA
:1039300030002900FEF74AF9D2B2092AEBD9149BCC
:103940009C466244D2B2E8E76123820600D5412357
:10395000DBB20A3B0C93434614A91F228C461593F5
:1039600053466244A046B2464C461797A9461700F4
:10397000099D0D9E1490169308E03033DBB201349C
:103980003B55B5420ED3202C0CD005003100280049
:10399000FEF7DEF8CBB20929EFD90C9A94466344BE
:1039A000DBB2ECE7159B4D46A14644469846169B74
:1039B000564614989A46179FD0E5B742B2D9179B3E
:1039C00057469846189B5E469A461B9B09949B4611
:1039D0001698199C1A9D43460593534604930D9BD4
:1039E0000690039300230293099B05E70F9B9845DC
:1039F00000D914E701330F932DE4102311009943EC
:103A00000D91692800D0BAE080231000DB00184037
:103A10001A4200D122E61DE60C9B1B68DA0F11004A
:103A2000002B00D18CE0DA179818504014AA914668
:103A300042461F23149252464B44A046A94616976D
:103A400004006546B2461F000C91159201E0202D3E
:103A50000FD020000A21FEF77BF801357E193031A6
:103A6000317020000A21FEF773F826000400092EA9
:103A7000EDD8149B444698460C9BAC461900159B08
:103A800056464D469A46169F0D9B02910693434615
:103A90000593534604930A23039363463CE60028A8
:103AA00000D02EE602E60C9B1B689946002B03D142
:103AB00010339843002938D16123820600D5412371
:103AC000DBB20A3B0C9343461693534614A91F22BC
:103AD0008C4617932B006244A0464D46B246189779
:103AE00099461700149C0D9E159008E03033DBB208
:103AF00001343B55B5420ED3202C0CD005003100CB
:103B00002800FEF725F8CBB20929EFD90C9A944684
:103B10006344DBB2ECE7169B149444469846179B2B
:103B200056464D469A461598189F43460593534668
:103B300004930D9B0690039300230293149BEBE5E3
:103B40000028A1D172E70C9B1B68D9175A184A406C
:103B5000A6E580231000DB0018409C460F901A4217
:103B60000FD00220030013400F93104219D00023FE
:103B7000A1460F934CE50C9B1B680993E4E40A00F3
:103B800034E40223180010400D90134200D03EE5AB
:103B90004346002B00D042E6FFF771FB01330F9341
:103BA0007FE463460D93F3E710B50C0084B00394F3
:103BB000012402A902900093034813006242FFF718
:103BC00003FA04B010BDC0469525001010B5094A8F
:103BD0000300146884B0002C08D00122009106482C
:103BE000524203A9A047012004B010BD00F07CF9A7
:103BF0000020F9E7EC1200208525001000BEFDE74B
:103C000010B5FFF7FBFFC04670B5FDF74FFE074D3F
:103C1000074EB54209D20024013E761BB60808CDF6
:103C2000984723000134B342F9D170BD6C7E001077
:103C3000747E0010030010B5080011001B6898473F
:103C400010BDC046F0B5C64600B5437D07000C0068
:103C50001600002B46D0002A17DD0B780A2B24D043
:103C600000239846012E13D001252900635C0135FD
:103C70000A2B26D0B542F8D1464509DCA419013CEF
:103C800023780D3B5A4253413B7580BCB846F0BD8A
:103C90004346E018A419F11A013C3B689847237881
:103CA0000D3B5A4253413B75EFE7037D002BD7D1C3
:103CB00002210F483B689847012EDFD00123984628
:103CC000D2E7631E5B5C0D2BD4D0884504DA4346F3
:103CD000C91AE0183B689847022105483B68A84686
:103CE0009847C7E70368110020009847CDE7C04612
:103CF00048850010F0B5C6460B6806000C0000B5FC
:103D0000802B06D05A1C2260E418267180BCB8466D
:103D1000F0BD0F4B1D68002D16D00B1D98460D4FA2
:103D200002E02D69002D0FD02B68002BF9D03B68E5
:103D3000002B01D0AB42F4D1280041462268FFF7A6
:103D400081FF2D69002DEFD101220023DBE7C04662
:103D5000E4120020E8120020F0B54546DE464E464B
:103D60005746E0B583B091461C0080460D00FDF734
:103D7000E7FB0023304A12184B41002B02DA0122E4
:103D80002E4B52422E4908008A4604F039F80700AB
:103D90006B1C03D1404603F0CBFF0500002C27D05D
:103DA000284E294B1C68002C18D04B46002B21D1E3
:103DB000264B994602E02469002C0FD02368002B83
:103DC000F9D04B461B68002B01D09C42F3D1200058
:103DD0002A004146B0472469002CEFD1002F26D19C
:103DE000280003B0F0BCBB46B246A946A046F0BDD1
:103DF000174ED6E7154B99460A239B4602E02469E5
:103E0000002CEBD02368002BF9D04B461B68002B0D
:103E100001D0A342F3D12A0041462000B0476B46AF
:103E20005A462000DA71D91D0122B047E7E7504613
:103E300003F0BEFFD4E7C04640420F00FFFFFF7F04
:103E4000C8050020453C0010E4120020E8120020C4
:103E5000353C0010F0B5CE46474680B583B06B4682
:103E60000600DD1D2870FDF76BFB0023194A1218B0
:103E70004B41002B02DA0122174B5242174908002E
:103E8000884603F0BDFF164B81461C68002C14D0F9
:103E9000144F02E02469002C0FD02368002BF9D0C6
:103EA0003B68002B01D09C42F4D120000122290064
:103EB000FFF7C8FE2469002CEFD14B46002B05D13B
:103EC000300003B0C0BCB946B046F0BD404603F078
:103ED0006FFFF5E740420F00FFFFFF7FC80500209E
:103EE000E4120020E812002070B5040003F020FF67
:103EF00001230100050001222000FFF72DFF084BE0
:103F00001C68002C06D06368002B05D098472469F4
:103F1000002CF8D1280070BD2469002CF3D1F9E7FA
:103F2000E4120020F0B5CE46474680B5A3B00400A9
:103F30000D00FDF705FB0023274A12184B41002B0B
:103F400002DA0122254B5242254E300003F058FF81
:103F500000232200019307002B00224801A9FFF74C
:103F600023FE214B804699461C68019B002B1AD0EA
:103F7000002C2FD01D4D02E02469002C0FD02368A7
:103F8000002BF9D02B68002B01D0A342F4D12000E4
:103F9000019A02A9FFF756FE2469002CEFD14B4687
:103FA0001C6800230193002C06D06368002B0BD003
:103FB00098472469002CF8D1002F07D1404623B040
:103FC000C0BCB946B046F0BD2469ECE7300003F050
:103FD000EFFEF3E70194EFE740420F00FFFFFF7FA2
:103FE000C8050020F53C0010E4120020E812002073
:103FF0000FB400B583B004A901C90191FFF792FF86
:1040000003B008BC04B0184710B5024800F00CF823
:1040100010BDC0462013002010B508220149FEF74C
:104020006DF910BD2013002010B588B004000D22DA
:1040300000216846FEF75CF90D22002104A8FEF776
:1040400057F94B236A466846137004A90D2203F002
:10405000A7FE1521082220006944FEF74FF908B099
:1040600010BDC046014B18607047C046A008002034
:1040700010B5034B0A000100180002F047FF10BD05
:10408000080A0020014B18687047C046A0080020AD
:1040900010B582B0FFF7F6FF002807D003F024FA2E
:1040A00003000020002B10D002B010BD684603F0C2
:1040B00071FC0F4C6946200003F072FC002813D0FD
:1040C0002000FFF7CFFF2000E8E7FFF7DBFF040049
:1040D00003F026FA064B9C4206D1236820005B6B56
:1040E00098470020FFF7BEFF01204042DCE7C046B2
:1040F000D005002010B50520FDF72AFB030C642035
:1041000003495843FDF724FD0338FDD210BDC046D6
:104110009A3B0000184B70B5C4580500002C14D011
:104120002168002906D06368A268144803F0D6F815
:10413000002323600C202056002810DA0D20205682
:10414000002803DA00220C4BEA5070BD03F002F99C
:104150000D20205603F0E2F8FF236373F2E703F02B
:10416000F9F80C20205603F0D9F8FF230D20237313
:1041700020560028E6DBE9E74C0800004C850010DB
:10418000F0B5C64600B53E4C3E4B84B0C45000234B
:104190000621220001262360013BA38101911231F7
:1041A0000500009138482100231D0832029603F0D3
:1041B00001F800285DD0636834485A1D1203DB0102
:1041C0001A43334B01681A4030238B4331499046E0
:1041D0000B600368300098430860802120682E4BF4
:1041E0004904C3181960A16880224B005B18DB00EA
:1041F000C3181F009202C8373A60C0229202BA6008
:1042000042467A60254ADC331A601D22012300965B
:1042100002F076FF224B21689C466144090D06316D
:104220001820C9B2FCF76EF8012200211820FCF713
:1042300083F801211820FCF793F8A16823684A004D
:104240005218D2009B18174AD8331A60002003F086
:104250006FF82073002003F06BF8237B40B260738B
:1042600018430437000604D4002004B080BCB846CC
:10427000F0BD2800FFF74EFF06204042F5E7C0469C
:10428000BC0900204C0800004C85001078C001409B
:10429000FFFFFF9F78D001403820000018771C24D2
:1042A0000000E0AF01E00000F0B557464E46DE46A4
:1042B0004546E0B585B00F001E000292002900D1EE
:1042C00025E1964BC458964B21689C466144090DE4
:1042D00006311820C9B2FCF715F8914B21689C46AD
:1042E0006144090D06311D20C9B2FCF70BF801220B
:1042F00000211D20FCF720F8D02380221B06920409
:104300002068A1689A61002E00D121E1002F00D120
:10431000FBE00122CC2590468A40AC4603689343DB
:104320000360636899464B005B18DB00C218944435
:1043300062461268C31892464A4605321503039531
:10434000784DAB4655465A4615402A00039D154305
:104350002A004D46ED012A4365462A60724A94467A
:104360008022634412061A601A60802200235204DD
:104370000092019302F06EFEA36842469C4604231D
:1043800063449A409946802321689B01CB181A60A8
:1043900062464046083290406246029D1860920094
:1043A000EB008A18013B136163465B006344DB004A
:1043B0005E48CB18D83318600E98401BC0000138F7
:1043C00010611F205A4AA0251A606268ED0502405C
:1043D0001A600C224346A256564893402B50564B27
:1043E0008020984692014244400413680342FCD165
:1043F00050480D2280460123A256A02093404546F6
:10440000C00543514C4B80209846920142444004E1
:1044100013680342FCD10C20414B2056CA18634656
:10442000C502A846120DD200444D9B18DB039A46E4
:104430002B0045461D4003932B0055461D432B0082
:104440003F4D80011D434B46AB46A0259B0098463F
:10445000ED05AA464546504407604F195D46029B4C
:1044600047609B088360C5600D202056039D4A4429
:10447000C7022F40D2030E9D3A43324F80013A4388
:10448000AF08FF1A434610335044CB180360029B19
:10449000F318436087600123C260604683400A6866
:1044A00013430B600C22284B80219C46A2564904E2
:1044B0009201624413680B42FCD10D22224B8021F1
:1044C0009C46A25649049201624413680B42FCD1F7
:1044D00000213000029AFDF70BFF2068A1684B0015
:1044E0005B18DB00C018194BD83003608022D02342
:1044F00092041B065A61FFF7FDFD002005B0F0BCD9
:10450000BB46B246A946A046F0BD370001E7002BE6
:1045100000D0D6E605204042F0E7C0464C08000037
:104520000000E0AF7F00FEFFD01000002060000020
:1045300040600000440400000C000050FD7F00FFBC
:1045400019004000290040001000005003A00000A6
:10455000002FC4D00122CC2590468A40AC46036887
:1045600093430360636899464B005B18DB00C218F5
:10457000944462461268C31892464A4601321503B3
:1045800003954A4DAB4655465A4615402A00039DB1
:1045900015432A004D46ED012A4365462A60444AE8
:1045A000454694468022634412061A601A608022AF
:1045B000002352040092019302F04CFD4246A06891
:1045C0002168031D9A409C4680239B01CB181A60EA
:1045D0000200083295401D60029B8200DB008A18B1
:1045E000013B136143001B18DB00324DCB18D8335D
:1045F0001D6016611F26304A304D1A6062683240D5
:104600001A600C224646A256A0239640DB055E5156
:104610002B4B80269846920142447604136833421D
:10462000FCD10C22274BA256CB181B0D264DDB00CC
:10463000D6021B182E40DB033343244E92011E4347
:10464000029B9D08A023DB05984663469B004244DD
:10465000CB1817605360012383409560D6600A68C9
:1046600013430C220B601A4B80219C46A25649042E
:104670009201624413680B42FCD10122A3682168B5
:1046800018339A408A608B681A42FCD00122A168D4
:1046900020688A4003689343036000231822009334
:1046A000013302F02DFD2068A16818E77F00FEFFAE
:1046B000D0100000206000004060000044040000B2
:1046C0000C0000500000E0AFFD7F00FF190040002B
:1046D0001000005010B51720FBF7B4FED024802343
:1046E00024061B040022012163621720FBF724FE2D
:1046F0001820FBF7A7FE80235B0463621920A361E7
:10470000FBF7A0FE80239B046362636110BDC0467B
:1047100070B5D024802524062D04A561142002F054
:104720007BFF6561FA2002F077FF1820FBF78AFE15
:1047300080235B04A36270BD002300B585B00393A2
:104740000C4BD2021A400823090711430A4A00936E
:104750000A4302AB52BA002102920422FFF7A4FDE1
:10476000002803D1039840BA05B000BD052040429F
:10477000FAE7C04600F8FF0F0400004010B5134BE5
:10478000D2021A400B071A43114B8AB013434C1E36
:104790000493634263411B01083300930422002108
:1047A00004ABFFF781FD00280CD1631E9C4103235D
:1047B000082261429943053102AB89009B18585881
:1047C0000AB010BD05204042FAE7C04600F8FF0FCE
:1047D0000400004010B5134BD2021A400B071A43D5
:1047E000114B8AB013434C1E0493634263411B0177
:1047F000083300930422002104ABFFF755FD002885
:104800000CD1631E9C410323082261429943053168
:1048100002AB89009B1858580AB010BD05204042D1
:10482000FAE7C04600F8FF0F0200004010B5134B36
:10483000D2021A400B071A43114B8AB013434C1E85
:104840000493634263411B01083300930422002157
:1048500004ABFFF729FD00280CD1631E9C41032304
:10486000082261429943053102AB89009B185858D0
:104870000AB010BD05204042FAE7C04600F8FF0F1D
:1048800001000040F0B55BBADE4657464E4645464D
:10489000E0B5744CD202224009071143724A85B038
:1048A0000A430393714B02A9C458714B8A4652BA0A
:1048B0009C46216818206144090D0631C9B2029254
:1048C000FBF720FD6A4B21689C466144090D0631C7
:1048D0001D20C9B2FBF716FD012200211D20FBF7A8
:1048E0002BFDD023802201271B0692049A613A00F7
:1048F000A16820688A4003685E4D93430360636843
:10490000A9469C464B005B18DB00C618CC363268C3
:10491000C3189046624601321203934645464A4602
:1049200015402A005D4615432A006546ED012A43DD
:104930003260514A3D0094468022634412061A6058
:104940001A608022002352040092019302F082FB3D
:104950003A00A0688023061DB24021689B01CB1855
:104960001A600200083295401D603F2382008A18B9
:10497000136143001B18DB00404DCB18D8331D607A
:10498000002515613E4A1F351A6062682A401A6088
:104990000C22A256A02397403A4DDB055F513A4BBB
:1049A00080279C46920162447F0413683B42FCD1FD
:1049B0000C222F4BA256CB181B0D344DDB00D70217
:1049C0001B182F40DB033B43314FB6001F439301BD
:1049D000A022D2059446524663441A6002228E19E0
:1049E0005E609A60DF60012383400A6813430C22F3
:1049F0000B60284B80219C46A256490492016244D8
:104A000013680B42FCD10122A368216818339A4035
:104A10008A608B681342FCD00122A16820688A401A
:104A2000036893430360002318220093013302F0CC
:104A300067FBA16823684A005218D2009B18164AE7
:104A4000D8331A60D02380221B0692045A61FFF7E4
:104A500051FB002005B0F0BCBB46B246A946A046BB
:104A6000F0BDC04600F8FF0F040000C04C08000075
:104A70000000E0AF7F00FEFFD010000020600000CB
:104A800040600000440400000C000050FD7F00FF67
:104A9000190040001000005003A00000F0B5DE46F1
:104AA00057464E464546E0B585B002ACA246724C2C
:104AB000D202224009070A43704901270A430292A1
:104AC000524653606E4B6F4DC4586F4B21689C46E5
:104AD0006144090D06311820C9B2FBF713FC6A4B7B
:104AE00021689C466144090D06311D20C9B2FBF7BF
:104AF00009FC012200211D20FBF71EFCD02380228F
:104B00001B0692049A613A00A16820688A400368F3
:104B1000A9469343036063689C464B005B18DB0027
:104B2000C618CC363268C31890466246013212036A
:104B3000934645464A4615402A005D4615432A00DD
:104B40006546ED012A433260504A3D00944680227A
:104B5000634412061A601A608022002352040092F5
:104B6000019302F077FA3A00A0688023061DB24054
:104B700021689B01CB181A600200083295401D6025
:104B80003F2382008A18136143001B18DB00404D4D
:104B9000CB18D8331D60002515613E4A1F351A60B9
:104BA00062682A401A600C22A256A02397403A4D10
:104BB000DB055F51394B80279C46920162447F049C
:104BC00013683B42FCD10C222F4BA256CB181B0D75
:104BD000334DDB00D7021B182F40DB033B43314F23
:104BE000B6001F439301A022D20594465246634467
:104BF0001A6002228E195E609A60DF600123834092
:104C00000A6813430C220B60274B80219C46A25656
:104C100049049201624413680B42FCD10122A3684B
:104C2000216818339A408A608B681342FCD00122B5
:104C3000A16820688A400368934303600023182218
:104C40000093013302F05CFAA16823684A0052180D
:104C5000D2009B18154AD8331A60D02380221B0635
:104C600092045A61FFF746FA002005B0F0BCBB463B
:104C7000B246A946A046F0BD00F8FF0F040000C0F0
:104C80004C0800007F00FEFF0000E0AFD0100000E5
:104C90002060000040600000440400000C00005050
:104CA000FD7F00FF190040001000005003A000002D
:104CB000F0B5DE4657464E464546E0B585B002ACF7
:104CC000A246724CD202224009070A4370490127CA
:104CD0000A430292524653606E4B6F4DC4586F4B5D
:104CE00021689C466144090D06311820C9B2FBF7C2
:104CF00009FB6A4B21689C466144090D06311D2061
:104D0000C9B2FBF7FFFA012200211D20FBF714FBBB
:104D1000D02380221B0692049A613A00A168206881
:104D20008A400368A9469343036063689C464B002E
:104D30005B18DB00C618CC363268C3189046624652
:104D400001321203934645464A4615402A005D4605
:104D500015432A006546ED012A433260504A3D0062
:104D600094468022634412061A601A60802200234F
:104D700052040092019302F06DF93A00A06880237A
:104D8000061DB24021689B01CB181A600200083250
:104D900095401D603F2382008A18136143001B1851
:104DA000DB00404DCB18D8331D60002515613E4A0D
:104DB0001F351A6062682A401A600C22A256A0238E
:104DC00097403A4DDB055F51394B80279C46920155
:104DD00062447F0413683B42FCD10C222F4BA25645
:104DE000CB181B0D334DDB00D7021B182F40DB0304
:104DF0003B43314FB6001F439301A022D205944696
:104E0000524663441A6002228E195E609A60DF6027
:104E1000012383400A6813430C220B60274B802137
:104E20009C46A25649049201624413680B42FCD18D
:104E30000122A368216818339A408A608B68134264
:104E4000FCD00122A16820688A4003689343036074
:104E5000002318220093013302F052F9A16823685D
:104E60004A005218D2009B18154AD8331A60D02332
:104E700080221B0692045A61FFF73CF9002005B01E
:104E8000F0BCBB46B246A946A046F0BD00F8FF0FF5
:104E9000020000C04C0800007F00FEFF0000E0AFF1
:104EA000D0100000206000004060000044040000BA
:104EB0000C000050FD7F00FF190040001000005062
:104EC00003A00000F0B5DE4657464E464546E0B525
:104ED00085B002ACA246724CD202224009070A43B6
:104EE000704901270A430292524653606E4B6F4D40
:104EF000C4586F4B21689C466144090D0631182047
:104F0000C9B2FBF7FFF96A4B21689C466144090D61
:104F100006311D20C9B2FBF7F5F9012200211D2041
:104F2000FBF70AFAD02380221B0692049A613A000A
:104F3000A16820688A400368A946934303606368B8
:104F40009C464B005B18DB00C618CC363268C31891
:104F50009046624601321203934645464A46154042
:104F60002A005D4615432A006546ED012A4332605A
:104F7000504A3D0094468022634412061A601A602B
:104F80008022002352040092019302F063F83A0059
:104F9000A0688023061DB24021689B01CB181A60CF
:104FA0000200083295401D603F2382008A18136179
:104FB00043001B18DB00404DCB18D8331D60002583
:104FC00015613E4A1F351A6062682A401A600C2239
:104FD000A256A02397403A4DDB055F51394B8027FD
:104FE0009C46920162447F0413683B42FCD10C2230
:104FF0002F4BA256CB181B0D334DDB00D7021B18CD
:105000002F40DB033B43314FB6001F439301A022E7
:10501000D2059446524663441A6002228E195E609D
:105020009A60DF60012383400A6813430C220B60FF
:10503000274B80219C46A256490492016244136882
:105040000B42FCD10122A368216818339A408A6080
:105050008B681342FCD00122A16820688A40036853
:1050600093430360002318220093013302F048F8B1
:10507000A16823684A005218D2009B18154AD833F9
:105080001A60D02380221B0692045A61FFF732F87F
:10509000002005B0F0BCBB46B246A946A046F0BD14
:1050A00000F8FF0F010000C04C0800007F00FEFF69
:1050B0000000E0AFD0100000206000004060000061
:1050C000440400000C000050FD7F00FF1900400068
:1050D0001000005003A00000F0B5DE1C1D000323EB
:1050E000040083B09E43012924D024230420164FBA
:1050F000D2023A4009072A430A4380210430C905F5
:1051000080000A43201804364260002100960422E1
:105110002000E318FFF7C8F8061E0FD12100089BF6
:105120002831994203D02A001800FDF7E7F8300033
:1051300003B0F0BD002010361133D8E70521034835
:105140004942FEF755FFF2E700F8FF0F407F0010DD
:10515000F0B557464E464546DE46E0B50F00032102
:105160008BB002921A0003338B4306009846022F3D
:1051700022D0029B27493F07DB020B4017431F4306
:10518000C023300044461B0614993B4328300434A6
:105190007362884201D0FDF7B1F83100002322008C
:1051A000300024310093FFF77FF80BB0F0BCBB4612
:1051B000B246A946A046F0BD174B184C9A460823A4
:1051C000994618339B46434604AD9046039305E049
:1051D0005A466B681A4218D1013C10D353462B60D3
:1051E0004B460422009300212B003000FFF75CF8AF
:1051F0000028EDD0039B42469846002CB9D10848C0
:10520000FEF772FE06204042CFE7039B42469846D7
:10521000F3E7C04600F8FF0F04400040E70300003A
:1052200074810010836870B5CC0B0500E403A342C1
:105230000DD0802263405204934219D2FF221204FF
:1052400013420CD1FF221202134201D1AC6070BD97
:10525000012128000A4A230AFFF734FEF6E7230C4F
:1052600001212800074AFFF72DFEAB686340E9E7FC
:10527000230E0121044AFFF725FEAB686340DDE7FA
:105280000A0001000B0001000C000100F0B5C64649
:10529000033083089C4600B58E1E002B1BD0013BBB
:1052A000072B57D933000B435B0753D1C008C40009
:1052B00032000B00A0460F1930CB30C2BB42FBD1ED
:1052C0004000844507D04346CA5ACB185B881B046C
:1052D00013434246B35073885BBA73808B1C1A68C1
:1052E00013BA73608B1D186803BAB3600B000A33DE
:1052F0001B681BBAF3608A23DB059A4203D0300097
:1053000080BCB846F0BD80231B059842F7D10B0046
:105310000A000D00B232AE3310681B882E352A69A0
:105320001C18944222D83A31C9180818814246D232
:105330000027002404E0DD2A1CD0C91888422CD99B
:105340004B780233CA189042F7D30A78302AF2D148
:105350000C00F2E7634632009800301893885488B6
:105360001B04234308C28242F8D1B4E701235B4205
:10537000B360C4E78A1C90468A78002ADDD1424691
:105380005278502AD9D142469278F22AD5D1424653
:10539000D278012AD1D10F00CFE7631E9C41A4002F
:1053A000002F01D002221443AA8BD20601D501227C
:1053B00014438422B15CB1520432B4549FE70024F8
:1053C000F2E7C046F0B5C6460E0005000B0000B57A
:1053D00001211A4AFFF776FD330001212800174A00
:1053E000FFF770FD002E25D00323032798464024A5
:1053F0000BE0012002F010F9013C330001212800EC
:105400000E4AFFF75FFD002C0FD0012128000B4A48
:10541000FFF70CFA0028ECDB42460240BA42E8D122
:10542000FF28E6D080BCB846F0BD31000448FEF746
:10543000DFFDF7E7012300279846D8E71F000100AA
:105440005C7F0010F0B5D6464F464646C0B5C37CDB
:1054500005000F00924682B0002B05D1006801F0D4
:1054600041FC012800D097E0280001F041FCAB7C12
:10547000002B05D101212800FFF7A4FF0123AB7405
:10548000EB7C002B00D16EE0FA24A40003E0013C89
:10549000002C00D180E0082200212800FFF76EF9DF
:1054A000431CF4D0C30500D4BFE0C02203035B0D4E
:1054B000591ED200914200D3B1E0800700D5AEE082
:1054C0002C0028340022022128000094FFF704FE5B
:1054D00000283BD1298D6A8D0B00134300D1A4E035
:1054E0000123EB74604B9C460B005340634500D096
:1054F000A1E0D24392B2914200D099E00B2900D8AA
:10550000A0E0237AAB730F2362791340022B23D8D8
:10551000627A944666466A7BB21AD2B2142A3ED99F
:105520000C291DD0012B3CD0022B60D01B2900D8A8
:1055300094E0E3792D8AE3185A89954200D08AE0F5
:10554000524610331C1B0C1B3C60136002B0E0BCC5
:10555000BA46B146A846F0BD0B2040420C29F5D111
:1055600004204042F2E7042200212800FFF732F92C
:1055700083B298463D4B040099461B88434502D0B0
:10558000862303422DD14346002B42D14B4642464F
:105590001A80A40600D577E701204042D6E76E7353
:1055A000BEE710295DD9E379E318DA789200043276
:1055B0009B181A7B1C1B091B882A46D15A7B6C2A14
:1055C00043D1DA7C002A3AD11A7D102A37D15A7D8C
:1055D000182A34D152461839183339600120136023
:1055E000B4E70104090C2248FEF702FDCBE71029BD
:1055F0002ED9E2790220A218D3789B000433D31865
:1056000092781C1BD2070C1B144352463C6013605B
:105610009CE7042200212800FFF74AFBB6E701239C
:1056200001212800134AFFF74DFC0023EB74B3E778
:10563000022040428AE71048FEF7DAFCACE70A2075
:10564000404283E70320404280E7092040427DE753
:10565000072040427AE70620404277E70520404293
:1056600074E70820404271E7FFFF00003214002079
:10567000807F00100D000100AC7F0010F0B5DE4609
:10568000574645464E460400E0B585B09A468846E2
:10569000934601F02DFBA37C002B05D101212000B6
:1056A000FFF790FE0123A374A37B002B24D02F4F80
:1056B0002F4EBB6A99460EE0A17B002903D1237BC4
:1056C000627B9A421CD14B46ED1AB54245D8FA206E
:1056D000800001F073FF200003AA02A9BD6AFFF752
:1056E000B1FE0128E8D103990298FFF7CFFD010030
:1056F000200001F003FBDFE7237B627B9A42D6D0D8
:105700005A4651460C3292B20A80D2430B714A80FB
:10571000524641465171002251468A7141468E1EC1
:10572000711E8E41012176428E43514601330E3661
:105730000A814A81CE7123735B4603320F33934350
:105740000091002202212000FFF702FD05B0F0BC0D
:10575000BB46B246A946A046F0BD637B227B054806
:10576000FEF746FC02204042F0E7C04600400540FC
:1057700040420F00D87F0010F0B557464E464546D0
:10578000DE46E0B5294E9246B76A9846284AB36A83
:105790000500894683B0DB1B93422ED8254B9B46E0
:1057A00010E0022820D0002803DB01005846FEF755
:1057B0001FFCFA20800001F001FFB36A1C4ADB1BCA
:1057C00093421AD86946280001AAFFF73BFE041E3F
:1057D00023D00128E5D101990098FFF757FD01007A
:1057E000280001F08BFAE4E70099019B4A00286841
:1057F0005208C90F01F040FFDBE7434652464946D5
:1058000002240D48FEF7F4FB6442200003B0F0BC14
:10581000BB46B246A946A046F0BD009A424500D913
:10582000424601990C9802F0CFF9EEE7004005409E
:105830003F420F00FC7F001028800010F0B5CE46DC
:10584000474680B5060083B004000800170089466B
:1058500002F06EFA431C9846443605001A00494689
:105860003000FCF74BFD4346F2183B0A17705370AB
:105870003B0C3F0E9370D7702A00802321326F1D9E
:105880001B019A4220D80822238AFF3201339BB29F
:1058900090466263063AFF3A23821B041343E36394
:1058A00000232A002364230000212000A76315326F
:1058B0002833FFF7E3FE002806D13B0042460221D1
:1058C00020000096FFF758FF03B0C0BCB946B046B1
:1058D000F0BDC046F0B5CE46474680B5060083B061
:1058E0000400080099468846170002F021FA443661
:1058F000451C3A004946701902F066F92A004146F3
:105900003000ED19FCF7FAFC2A0080231C321B0141
:105910009A4220D8218A0A9B013189B21B03218235
:105920000904194302231943002308272364230091
:10593000FF37E163200000216763A56328330C3A39
:10594000FFF79CFE002806D12B003A000221200020
:105950000096FFF711FF03B0C0BCB946B046F0BDDA
:10596000836870B5CE0B04000D00F6039E420DD087
:10597000802273405204934239D2FF221204134210
:105980002CD1FF221202134221D1A66080226D0485
:105990006D0C12022A4301212000FEF747FFC025AB
:1059A000A36806006D05AB420FD080226B40520405
:1059B000934238D2FF221204134228D1FF2212024E
:1059C00013421CD1C0235B05A360300070BD0121D0
:1059D0002000194A330AFFF775FAD6E7330C012184
:1059E0002000164AFFF76EFAA3687340C9E7330E2A
:1059F0000121134AFFF766FAA3687340BDE7C0238D
:105A0000012120000C4A5B03FFF75CFADAE7C023B0
:105A10000A4A5B0101212000FFF754FAC023A26863
:105A20005B055340CAE7182301212000044AFFF711
:105A300049FAA3686B40BDE70A0001000B000100B2
:105A40000C000100F0B5C646CE0B0D0081680400C5
:105A500090461F0000B5F6038E420DD080237140A2
:105A60005B04994266D2FF231B04194259D1FF23DC
:105A70001B02194225D1A660802243466D046D0C9D
:105A800012022A43012B23D03B0001212000FFF703
:105A900005F8C025A3686D05AB420FD080226B408E
:105AA000520493421AD2FF221204134222D1FF223F
:105AB000120213422DD1C0235B05A36080BCB846FF
:105AC000F0BD012120001F4A330AFFF7FBF9D2E79E
:105AD0003B0001212000FFF7F5F9DAE718231A4A05
