:020000041000EA
:1000000000B5324B212058609868022188439860DF
:10001000D860186158612E4B002199600221596106
:100020000121F02299502B49196001219960352056
:1000300000F044F80222904214D00621196600F024
:1000400034F8196E01211966002018661A6600F04E
:100050002CF8196E196E196E052000F02FF8012189
:100060000842F9D1002199601B49196000215960AB
:100070001A491B48016001219960EB211966A021F2
:10008000196600F012F800219960164914480160C1
:100090000121996001BC002800D000471248134993
:1000A000086003C880F30888084703B5996A0420EC
:1000B0000142FBD001200142F8D103BD02B5186610
:1000C0001866FFF7F2FF186E186E02BD00000240BE
:1000D000000000180000070000035F00212200005C
:1000E000F4000018222000A00001001008ED00E03C
:1000F00000000000000000000000000074B24E7A12
:1001000000200420F7010010CB010010CD010010E9
:10011000C9010010C9010010C9010010C901001077
:10012000C9010010C9010010C9010010CF01001061
:10013000C9010010C9010010D1010010D301001045
:10014000C1010010C1010010C1010010C101001067
:10015000C1010010C1010010C1010010C101001057
:10016000C1010010C1010010C1010010C101001047
:10017000C1010010C1010010C1010010C101001037
:10018000C1010010C1010010C1010010C101001027
:10019000C1010010C1010010C1010010C101001017
:1001A000C1010010C1010010C1010010C101001007
:1001B000C1010010C1010010C1010010C1010010F7
:1001C000EFF30580103800BE00BE00BE00BE00BECA
:1001D00000BE00BEF2EB887148F7031064F703100D
:1001E0003802001090A31AE71E481F49086006C88D
:1001F00081F3088810471D480068002801D019487D
:10020000F3E70DA40ECC002902D000F012F8F9E7B4
:100210001749184A002000E001C19142FCD116495B
:100220008847164988471649884700BEFDE701C937
:1002300001C29A42FBD3704764F70310C00000204C
:100240009005002034FC031000000420000004206E
:1002500034FC0310001004200010042000000000F3
:10026000704700000000000008ED00E0000000D032
:1002700090050020FC13002031380010D10200103E
:1002800029380010F8B5C04610B5064C2378002B6D
:1002900007D1054B002B02D0044800E000BF01232A
:1002A000237010BD58080020000000003C7B0010A7
:1002B000044B10B5002B03D00349044800E000BFF5
:1002C00010BDC046000000005C0800203C7B001010
:1002D00010B503F0FFFC002810D10121002003F02D
:1002E000E9FCFA20800001F021F80021002003F051
:1002F000E1FCFA20800001F019F8EEE701F06EFA57
:10030000EBE7C04610B54024084A83009A181268EB
:10031000C0005440C0222240054CA44663441A60E9
:10032000044B9C466044416010BDC04604C001407F
:1003300004D00140004001400B4B80009C466044CB
:1003400000290ED100230431002A00D11900802297
:1003500003685201594094460C2360440B400360EB
:1003600070470C210823EFE704C0014080000029FA
:1003700005D0064B9C460223604403607047044B43
:100380009C46022360440360F8E7C04604E0014055
:1003900004F00140D0231B061B6830B50500581E31
:1003A000834110485C428446072030232840234084
:1003B0008000EC08814020000B4D3C3063448000FD
:1003C000A40041511B19002A05D0802292019446B5
:1003D0006344196030BDC0229201944663441960A1
:1003E000F8E7C0460041014000400140D023F0B58D
:1003F000C64604001B0698461B680C4F9B00F85825
:100400000D00160000B5044209D104433200290052
:10041000FC500D2000F066F980BCB846F0BD01F03C
:10042000DDF943461B689B00F858EEE7DC1200201C
:1004300010B504000D2000F049FAD0231B061B68FC
:1004400002499B005A58A2435A5010BDDC120020AA
:100450000123D02283404021120693629361094A0E
:1004600083009A181268C0005140C0220A40064911
:100470008C4663441A60054B9C46052360444360E8
:100480007047C04604C0014004D001400040014014
:100490000FB400B5084883B003F040FB049B002B69
:1004A00007D005A91800019103F0A4F9034803F04F
:1004B00035FB012003F0B6F9407B0010707F00107F
:1004C000EFF3108072B6034A1368002BFCD0BFF321
:1004D0005F8F70472C0100D0BFF35F8F0022024B6B
:1004E0001A6080F3108870472C0100D070B5EFF3CC
:1004F000108C72B60D4D2B68002BFCD0BFF35F8FB4
:100500000724CB08C618C05C01230C40A3401C0084
:100510000440034207D103433370BFF35F8F2C6065
:100520008CF3108870BD1000FFF7B2FF2C0100D0D3
:10053000F8B54746CE46884680B5EFF3108C72B6C4
:10054000214D2C68002CFCD0BFF35F8F9A422CD831
:10055000D4080727055D061901241740BC402C422A
:100560001FD007210127894609E0D408055D061937
:100570004C4639001440A1400C00294211D00132F0
:100580009342F2D201204042BFF35F8F00220E4B14
:100590001A608CF3108800280FDBC0BCB946B04647
:1005A000F8BD2C4310003470EEE7BFF35F8F0023DB
:1005B0002B608CF31088012040424346002BECD086
:1005C0000898FFF765FFC0462C0100D030B5EFF367
:1005D000108C72B60A4C2368002BFCD0BFF35F8FDF
:1005E00007230122CD0819408A40435D93434355B8
:1005F000BFF35F8F002323608CF3108830BDC046AB
:100600002C0100D0044A1078431CDBB2172B00D910
:10061000102313707047C046D80400200021044BFB
:10062000044ABFF35F8F02C39342FAD17047C046BA
:10063000000100D0800100D0054B064A1360064A35
:10064000136053609360D36013615361936170478B
:100650008080808000E400E004E400E01F23184074
:100660001E3B8340002905D0C021044A4900535055
:1006700013607047802201498B50FAE700E100E0E7
:1006800001238340014A13607047C04600E200E046
:1006900070B50D00EFF3108672B60F4A1368002B89
:1006A000FCD0BFF35F8F0D4B10309B6884001B594B
:1006B0000B4A934203D09D4201D001F08FF8074BC3
:1006C0009B681D51BFF35F8FBFF35F8F0022024B0A
:1006D0001A6086F3108870BD240100D000ED00E0A0
:1006E000C1010010F0B557464E46DE464546E0B51E
:1006F00085B0060002911700EFF3108B72B6674ABF
:100700001368002BFCD0BFF35F8F0025644B5D574F
:100710009A46002D00DAA4E06B00624C03935B194B
:100720009B009846A146C1444B4652469B791036E1
:1007300013705D4BB2009B68019299580B1B2F2BD5
:1007400034D95A4B994200D0A4E0039B584A9C46A6
:10075000584B6544AD006353434602336519E418B2
:10076000554B0121043B1B1B1B055B0D13436B8089
:10077000524BEF71AB80FF23AB71029BAB604B46DA
:100780000B431900484B019A9B689950BFF35F8F48
:10079000BFF35F8F0022414B1A608BF3108805B0C6
:1007A000F0BCBB46B246A946A046F0BD01200A00F7
:1007B0008243D379BB422FD845464E461300404969
:1007C0001B1B5B415943090D3A4B63533A4B0235AE
:1007D0006519043B5B1B1B05354D5B0D2B4373807B
:1007E0000426B446E0444444131F1B1B4C46A1712D
:1007F00002991B05A16049465B0D2B43A380314B39
:10080000E77101431360BDE75800C018800020184D
:10081000C679BE422BD902000623D356002BF3DA49
:10082000101D82462848804604267642B446E1449C
:1008300050464E46361A3005400D824656461C48F4
:10084000957106439680039A944665441D4AAD000F
:10085000641922604246A371029BA280E771A360E3
:1008600090E700F0BBFF002553465D5754E7101D8D
:10087000824690884005001584464046D44466462A
:1008800004302018301AE0260005400D36023043AF
:100890008046C9E700F0A2FF57E7C046240100D018
:1008A000F9130020DC04002000ED00E0C10100107D
:1008B00000E0FFFF00A1FFFF0C05002001BDFFFFCE
:1008C000AAAA00000148804701BD0000F0B5DE463D
:1008D00057464E464546E0B50C0083B0EFF310890D
:1008E00072B65F4A1368002BFCD0BFF35F8F5D4B7D
:1008F0009A68030010339F00D5595B4A9046954291
:100900003DD0A5424ED0594EAA1B2F2A37D8584A5F
:1009100093461268944601226146924682401140F5
:100920001F22104052468240924601918022514639
:1009300058468150BFF35F8FEFF305829346002A3C
:1009400032D101232A009A439068844208D17CE086
:100950004B005B189B00F318986884422ED01A0055
:10096000062151560029F3DA84424DD0019B002B19
:100970001FD0C02251463E4B520099501960394B4E
:100980009B68DD51BFF35F8FBFF35F8F0022344B55
:100990001A6089F3108803B0F0BCBB46B246A94682
:1009A000A046F0BD1500EAE79342CAD000F016FF5A
:1009B000C7E7802351462E4AD150E0E70621595619
:1009C000002922DB4A005018800034188046A068B5
:1009D0009860E079D871062020569871002825DBB0
:1009E000A488F01A6405241544440019E024000585
:1009F000400D24022043988052181E4B9200B618D6
:100A00001A781970B271B1E71300594600290FD155
:100A1000FF3191711849918016490A789A71174AE5
:100A20009B1B5B415A43120D0A709FE71448E2E793
:100A3000144A1549D21A083A5002400D01439980D0
:100A4000124952080A43DA8090E7062151561300F2
:100A50000029B7DA5A46002AEAD14546DCE7C04603
:100A6000240100D000ED00E0C1010010DC040020F2
:100A700000E100E0F913002001BDFFFFAAAA000079
:100A800001BD00001605002000F0FFFF00F8FFFF89
:100A900010B58308040003202040FF24054AC0004D
:100AA0009446844081409B0063441A68A2430A43F1
:100AB0001A6010BD00E400E070B501240443EFF3B8
:100AC0000581EFF3108C72B6214A1368002BFCD01D
:100AD000BFF35F8F1F4B05001F4AED1A6D416A433C
:100AE000120D1E4D8900AE6852B27658A6421CD037
:100AF0000621595691421CD012215956914222D0BA
:100B00001E215956914220D02A2159560324914240
:100B100010D0134B19781A708171BFF35F8F0022C8
:100B20000B4B1A608CF3108870BDAB680D4C5C5099
:100B3000EFE700246100091989005B18FF21997112
:100B400009499980E5E70124F4E70224F2E7C04669
:100B5000240100D0DC040020AAAA000000ED00E07F
:100B6000F9130020C101001001BDFFFF1F2110B5C6
:100B7000091A0248FFF72AFD10BDC046FA130020EB
:100B800000B5074B83B00100009300220523054800
:100B9000FFF7CEFC002801DB1F23181A03B000BDAD
:100BA000507B0010FA13002070B504000E001500F1
:100BB000FFF728FD0100200000F006F8A680E58080
:100BC000BFF35F8F70BDC046024B9C4661448900F5
:100BD0000160704740000034F8B5134D134E2C00EF
:100BE000FF27B5421ED22368002B0FD0FFF70AFD66
:100BF00001002800FFF7E8FFA780BFF35F8F0834EC
:100C0000B4420FD223682500002BEFD1FFF7FAFC86
:100C100001002800FFF7D8FF2771BFF35F8F08346A
:100C2000B442EFD3F8BDC0468805002090050020EF
:100C300010B50400FFF7E6FC01002000FFF7C4FF39
:100C4000FF23A380BFF35F8F10BDC0460A4B196816
:100C5000EFF3108072B60A68002AFCD0BFF35F8FF2
:100C60001B68BFF35F8F00221A6080F3108840BFBB
:100C7000002000217047C046F0130020F0B5DE468A
:100C800057464E464546E0B585B0EFF3058203234F
:100C900013409A0011000392B64A5258904601221E
:100CA0009A409146B44B1A604B46B448436343465E
:100CB00008229B5E9A46002B3EDA43469B881BB275
:100CC000002B00DBA2E043469B79002B00D0F4E030
:100CD000434608241C5F002C24DB42465269630013
:100CE00094461B19DB0063449C68DD68631C00D1DB
:100CF00010E1A248039B84466344826A19001B6981
:100D0000A61A9B1A9E4215D34A46036A1A4211D06C
:100D10009A4800F0ADFB241A8D41002D02DCC3D1AE
:100D2000002CC1D040BF05B0F0BCBB46B246A946BE
:100D3000A046F0BD0C61EBE7424652695B0093466A
:100D40005344DB009B445B469E68DF6800F090FBE9
:100D5000801BB9410029B0DB002F00DAE5E05B46DB
:100D6000874A1B69934200D1D8E041465A46082081
:100D7000085E5288000410435A465169984704009F
:100D80000D0023002B4300D1CFE0002D00DBE8E075
:100D9000361BAF4134003D005B469C60DD600021A6
:100DA000595E002900DA88E743465B6922009C46C9
:100DB0002B0048004018C00060448668C768921B3A
:100DC000BB41002B00DA78E74346664602000094F8
:100DD000019519810CE07B00DB19DB00F31800980A
:100DE00001999C68DD68001BA941002904DB1A00F9
:100DF0000023D75E002FEEDA5B461F805346138038
:100E000043469B881BB2002B00DA5CE743461A6915
:100E1000EFF3108172B61368002BFCD0BFF35F8F25
:100E200043469B8842461BB29A4601235B4293800D
:100E30001369BFF35F8F00221A6081F31088534655
:100E4000002B00DA3FE743465B699C460823434496
:100E50009B4653465F0043465744FF0008229A5E74
:100E600067445E46BC68FD68002A19DB3B000094BD
:100E7000019567469C4604E01E000023F25E002AAE
:100E80000BDB0098019953009B18DB00FB189C6852
:100E9000DD68001BA9410029EEDA6346BC461F004D
:100EA0005346338000217B5E3A809A46002BD0DA8D
:100EB00043469B79002B00D10AE7002342469371F9
:100EC000434646460821595E08364B1C00D129E7A7
:100ED00047468C46556902E006004B1C17D04B0074
:100EE0005B18DB00E8180A00E95E43881BB2002BA0
:100EF000F2DA01235B42DC178360C4606245ECD008
:100F000031803B89944603803A814B1CE7D1B84637
:100F10006446E0E66B1C00D0EBE6F9E65B465C69F4
:100F2000200023699847002821D15B4642461B8850
:100F300013811269EFF3108372B611680029FCD097
:100F4000BFF35F8F4246594652880A804246514657
:100F500051801269BFF35F8F0021116083F3108805
:100F6000ABE6064800F084FA24184D4114E76568A2
:100F7000246806E7CC1200203C7005400040054084
:100F80007D0C001070B52E4C2569002D04D00A216F
:100F90002C48FFF719FE70BD2B4E0321300000F0E6
:100FA0005DFAE660FFF72EFB284B03229C46D02318
:100FB00022701B061B6801216370254B6044A360EF
:100FC0000F23800020610220638063694942A18071
:100FD00019800231198647311D83585218315A52EF
:100FE00075325C39995218320131995218320131F7
:100FF0009952183201319952083518329D520231F6
:1010000018329952183201319952183201319952DD
:101010001832013199521832013199521832013186
:1010200099520C4B0C49DC6001303562FFF730FB04
:1010300001210320FFF712FB084B1D60A7E7C04604
:1010400024050020F013002000400540400000343B
:10105000FFFF1000CC1200207D0C0010386005400E
:101060000048704724050020F8B51F0008AB1B7826
:1010700004001600002B07D100F002FA32003B00FA
:10108000121A8B41002B4CDB2269EFF3108072B6F1
:101090001368002BFCD0BFF35F8F62690223E15E0F
:1010A00094464B005B18DB006344002901DB1A887F
:1010B00062802269BFF35F8F0025156080F310887E
:1010C000002930DB069A9E60DF601A61079A5A6138
:1010D0005A8801325204520C161C002A1FD0B0B29A
:1010E0000A045E8010432669EFF3108572B63268F9
:1010F000002AFCD0BFF35F8FA2881A80A1802369E9
:10110000BFF35F8F00221A6085F3108807492378A8
:101110008C4601329A40E36863441A60F8BD0126A8
:10112000DDE70020FAE701204042F7E73C2000001D
:1011300070B5C646010000B50469EFF3108C72B6B5
:1011400020680028FCD0BFF35F8F02200D5E486945
:101150006C0080466419E4004444002D01DB2088C3
:1011600048800869BFF35F8F002606608CF3108803
:10117000002D30DBE36063880598013320615B0458
:1011800006985B0CA26060611A1C002B21D090B203
:101190002B04628018430A69EFF3108672B6136855
:1011A000002BFCD0BFF35F8F8B8823808D800B6971
:1011B000BFF35F8F00221A6086F310880B7801322C
:1011C0009A40CB6805498C4663441A6040BCB046DF
:1011D00070BD0122DBE701204042F7E73C20000020
:1011E00010B543890A14934233DD53009B184269BA
:1011F000DB00944604696344EFF3108C72B62268F6
:10120000002AFCD0BFF35F8F5A88090494B2090CFE
:101210008A4208D00369BFF35F8F00221A608CF303
:101220001088002010BD8022120214435C8001232C
:1012300002698371BFF35F8F002111608CF3108806
:10124000054902788C469340C268012062441360CD
:10125000E8E70020E6E7C0463C200000F0B50400C7
:101260000D0006267642F717C64636196F4100B5BF
:1012700082B08F4214D811D000F002F932003B0046
:10128000121A8B41002B15DC002B44D020002900C2
:1012900000F000F902B080BCB846F0BD8642EBD940
:1012A0000026002700F0ECF832003B00121A8B41B8
:1012B000002BE9DD00F0E4F832003B00121A8B410C
:1012C000002B0ADB00230193144B320000931448D7
:1012D0003B00FFF72DFF0028D8DBB0460026BC46B8
:1012E000104A114F7B6A9C4504D8B96A8845CDD90C
:1012F0009C45CBD11168EFF3108072B60B68002BC0
:10130000FCD0BFF35F8F1368BFF35F8F1E6080F365
:10131000108820BFE6E7002AB8D0CBE74D0C0010BC
:1013200024050020F01300200040054070B50600A1
:1013300000F0A6F8FA2204000D000023300000217E
:10134000920000F02BFF00196941002902DBFFF732
:1013500085FF70BD012001494042F8E7FFFFFF7F94
:10136000F0B5CE46474680B504000D0083B0EFF3DC
:101370000587002F0DD0364A0020536A8B4203D3D5
:10138000926A0130A24250D303B0C0BCB946B04605
:10139000F0BD304B9846DB689946434648461E7878
:1013A00000F066F80B00494602000436B60071589A
:1013B00020008E1A2900801A99418F4211DC0ED02C
:1013C00020BF234A0020536AAB42DDD3926A01302A
:1013D000A242D9D2E81A421E9041C0B2D4E7864256
:1013E000EED900F04DF822002B00121A8B41002B91
:1013F00020DB00230193184B2200009340462B0072
:10140000FFF796FE011E15DD114B2E005A6A95421C
:101410001CD89B6AA34217D34046FFF7E1FE0C4A53
:101420000020536A9E42AFD8D0E7581A421E90411E
:10143000C0B2A9E7064A0020536AAB42A4D3926A1D
:101440000120A242A0D2C5E79542E5D120BFE3E743
:1014500000400540240500204D0C001010B5024A44
:101460000248FFF743F810BD787B0010A809002060
:101470000300416A0A00986A596A8A42FAD17047A1
:10148000034B596A0A00986A596A9142FAD1704727
:1014900000400540064A536A9942FCD807D1044BE4
:1014A00002E05A6A914202D19A6A8242F9D37047A5
:1014B00000400540F8B5DE464E4657464546E0B585
:1014C0008B4605000A991800160000F0EBFA0A9BFB
:1014D0006C001F02324B64199C46A400644463688C
:1014E00081469F4200D967602B1FDBB29846012BD3
:1014F00030D9C02380229B01E31812011A60294BC6
:10150000AD0059599A4600291BD1226876017240D4
:10151000E0268023164042465B01E3181E60012A44
:1015200030D9802380229B01E31812011A605346B0
:101530004A4667605A51F0BCBB46B246A946A0462F
:10154000F8BD586900F0AEFA431C5800C0180338C3
:10155000FDD2DAE75B46012BCBD1C02303229B01EE
:10156000E3181A60023AA3681A42FCD0E02322680A
:10157000760156401E4080230A4A5B019246E318DA
:101580001E60AD005A462168514003220A401A608D
:1015900001225B469A40A3681A42FCD0C1E7C046CC
:1015A00000800040B0090020F0B546464F46D646C0
:1015B000C0B51F00344B44009C462418A40064446A
:1015C000636888461600FF2B02D880235B006360A7
:1015D000031FDBB29A46012B30D9C02380229B0126
:1015E000E31812011A60294B8500595999460029C0
:1015F0001BD1226876017240E026802316405246B5
:101600005B01E3181E60012A30D9802380229B01F0
:10161000E31812011A6080235B0063604B465F5140
:10162000E0BCBA46B146A846F0BD586900F03AFAA7
:10163000431C5800C0180338FDD2DAE74346012B9B
:10164000CBD1C02303229B01E3181A60023AA3689E
:101650001A42FCD0E0232268760156401E408023C7
:101660000A4A5B019146E3181E60850042462168E4
:10167000514003220A401A60012342469340A26867
:101680001342FCD0C1E7C04600800040B0090020F2
:10169000014B8000C0587047B0090020F8B5040025
:1016A00020481D0017000E0000F0FCF90100380072
:1016B00000F0F8F9069B29041B0319432368002B4B
:1016C0001EDB194B194DE21853425A4180235B012E
:1016D0009C461203164B62441A60164B1A601700A0
:1016E0002B689F43FBD1144B2660E2182123A06096
:1016F00013602368002BFCDA0823E1601360F8BD57
:101700003F2322681340B342DBD1A3681B051B0DA6
:101710008342D6D1EE22E368D20213408B42D0D16D
:10172000EDE7C046001BB7000040FDBF08C0004009
:1017300000E0004000F00040043000008023024A36
:101740009B000B43D362704700800540142310B503
:101750000100188804331B88984710BD162310B564
:101760000100188802331B88984710BDF8B547461A
:10177000CE4680B50F1E19D01423994604330400B9
:101780000025012698464B461888434621681B8849
:10179000984701C4431E9841013540420640AF427C
:1017A000F1D13000C0BCB946B046F8BD0126F8E71B
:1017B000AA23064A1B0113608D235B00D3600449F2
:1017C000044B19605368002BFCDA7047004002405C
:1017D00000B0FA00006002407047C04610B50148F2
:1017E000FEF756FE9C7B001070B5074D074EB542C4
:1017F00009D20024013E761BB60808CD9847230085
:101800000134B342F9D170BDF87A0010347B001076
:10181000054B064A06491A60064A074B1A60100033
:101820000B689843FBD1704700E00040BFCDFBFE42
:1018300008C00040FE7F3C0000F00040044BDB6C21
:10184000002B03D18022034BD2021A607047C0469E
:10185000000011504C201150044A054B1A60054AF3
:101860001368DB018033FBD17047C046FFFFFF01E7
:1018700000F0004008C000404022034B9A675A67BE
:101880001A67DA667047C04600F0014010B5FEF7EF
:10189000C5FE10BDF8B52D492D4C2E4D641AA6106D
:1018A0003200302E00D930222800920000F0D2FC05
:1018B000BC2C41D80123711C08009C46264A3029C3
:1018C0003DD92F272C196407E30FBF1B052F19D90A
:1018D000302917D8002B36D0B1006A506146CC1A97
:1018E000F3189B006108EB18C900C9181A605A6008
:1018F00008338B42FAD101232100994346188C42C8
:101900001AD0711CB300EA50302915D089006A50F2
:10191000B31C2E2E10D09B00EA50F31C2D2E0BD0A2
:101920009B00EA50331D2C2E06D09B00EA50731DFD
:101930002B2E01D09B00EA50084B9D60F8BD2F3341
:101940009B1B9C46BDE73000C8E7C0460001001065
:10195000C001001000000020C101001000ED00E0F7
:10196000002310B5294C82B0A367FFF721FF0122A5
:10197000274B1A60636C012BFCD10322254B1A60A4
:10198000224A936B012BFCD1013300930121224A9F
:1019900022480433FFF782FE052301210093204AE9
:1019A0002048FFF77BFE0022022104201E4BFFF798
:1019B000FBFD0022012105201C4BFFF7F5FD002255
:1019C000002107201A4BFFF7EFFD0022002108201D
:1019D000174BFFF7E9FD8023DB0000930022002175
:1019E0000920134BFFF766FD0022104B0021062053
:1019F000FFF7DAFD0420FFF74BFE0E4900F052F826
:101A000001000020FFF79AFE02B010BD00800040E8
:101A10003CB0004030B00040002F685900800240C8
:101A2000008C864700C00240001BB7004059730776
:101A3000006CDC0240420F0001480421014B1847B2
:101A4000400500206D170010014B9B6818470000EF
:101A500040050020124A936F9B0815D29066D1660C
:101A6000002905D0FFE7FFE7FFE7516F106F7047D0
:101A700004B580210906C2175140002800D0C84390
:101A800006F012F8002104BDF0B5146E556E576FC4
:101A9000166FFFF7E3FF1466556657671667F0BDCC
:101AA000000000D0114A936F9B0813D21066516654
:101AB000002905D0FFE7FFE7FFE7516F106F704780
:101AC00004B5002801D00020C04305F0EDFF00213F
:101AD00004BDC046F0B5146E556E576F166FFFF714
:101AE000E5FF1466556657671667F0BD000000D025
:101AF00094464A4A926F9208624601D228E0C04654
:101B0000F0B5464E346E756E776F366F00F020F884
:101B10009446424A14665566576716676246F0BD9A
:101B200094463E4A926F9208624601D254E0C04603
:101B3000F0B53A4E346E756E776F366F00F04CF834
:101B40009446364A14665566576716676246F0BD76
:101B5000002B24DB11D000293EDA00B5C9434042F6
:101B600000D1013100F038F8C943404200D10131C1
:101B7000DB43524200D1013300BD002AEBD10028E3
:101B800001D1002905D00020C90FC90701D1C043E8
:101B9000410800B505F078FF0022002300BD00B524
:101BA00000290ADBDB43524200D1013300F014F874
:101BB000C943404200D1013100BDC943404200D178
:101BC0000131DB43524200D1013300F005F8DB4321
:101BD000524200D1013300BD002923D1002B18D17E
:101BE000002A0CD0BC460D4F38667A6600210023CF
:101BF000FFE7FFE7FFE77A6F386F67467047002817
:101C000001D00748010000B505F03EFF0022002387
:101C100000BD02000B00002000217047000000D032
:101C2000FFFFFFFF002B00D0BFE0130C28D1002ADC
:101C3000E7D080B4114F39667A66FFE7FFE730B42A
:101C4000040C7B6F396F1B0423433B667A66FFE706
:101C5000FFE7FFE7C04684B27B6F3D6F1B04234361
:101C60003B667A66FFE7FFE7C04600232C042D0C95
:101C70007A6F386F00196941B0BC7047000000D01E
:101C8000F0B594460025140E01D112020835140F48
:101C900001D112010435940F01D192000235D40F05
:101CA00001D152000135D40B0134254F7C66254CFF
:101CB0003C660E0C93B2FFE7FFE7FFE73C6F66431D
:101CC000360C7703BE467343DF0B5B04C01AB94181
:101CD000130C7343DB18C91ACE086643360CB6449E
:101CE00093B273431F0F1B01C01AB941130C734306
:101CF0001F0B1B05C01AB941860D8F023E43664378
:101D0000360C092D24DB520A7243801A7703460AE7
:101D10006643360C16235B1BDE40DF40BF1964466A
:101D20006643821B7046043506330100D940A84043
:101D3000C01900D30131A24206D20023F0BD000039
:101D4000000000D0FFFFFFFF121B0130F3D3F1E7CB
:101D500009277F1BFE406446A2B27243801A00D25C
:101D60000139220C7243130C1204821A99410B00A0
:101D70007046043513370100F940A840801900D39C
:101D80000131002B02D1A2420AD2F0BD013000D3B2
:101D90000131121BFAD2013BF8D1A24200D2F0BDB0
:101DA000013000D30131121BF7E7F0B51C0C00D055
:101DB00080E00CB400251C0A04D11B02160E33432C
:101DC000120208351C0B04D11B01160F33431201FC
:101DD00004359C0B04D19B00960F334392000235CF
:101DE000DC0B02D192185B4101351C00971864414D
:101DF0000134464F7C66464C3C660E0CFFE7FFE71D
:101E0000FFE7C0463C6F6643360C7703BE4697B289
:101E10007743C01B00D20139C01B00D201399FB2E9
:101E20007743C91BC91B170C77437E04FF0B801B2C
:101E3000B941CE086643360C0C2D33DBB644120B89
:101E40001F053A431B0B97B27743C01B00D20139E1
:101E50009FB27743C91B170C77433E043F0C801B8E
:101E6000B941860D8F023E43664329277F1BFE4002
:101E70000C3D7746AF40BF1930BCA2B2ABB2724343
:101E80007343801A9941220C7243130C1204801A76
:101E9000994102000B000137001BA941F9D2781EBD
:101EA0000021F0BD0C277F1BFE4077467F0BAF4023
:101EB000FF19E0E700245D1C07D0144F7D663966EA
:101EC000FFE7FFE7FFE7FFE73C6F95B29EB2654390
:101ED0006643401BB141150C1E0C65436643360436
:101EE0002F0C3E432D04401BB141994204D2020005
:101EF0000B0020000021F0BD01D19042F7D3801AE1
:101F0000994101349942F2D3F6E70000000000D075
:101F1000FFFFFFFF48404140484018B4134B5B6847
:101F2000019308BD18B4114B1B68019308BD94467A
:101F30000F4A926F920805D2624618B40B4BDB68C9
:101F4000019308BD0A4AF0B5146E556E576F166FAF
:101F50006246FFF7F2FF064A146655665767166732
:101F6000F0BD18B4014B9B68019308BD58070020D1
:101F7000000000D0FFB550404240504059404B4017
:101F8000594000E0FFB5154F4C00640D03D0BC4232
:101F900004D10C0314D80020090D09055C00640D60
:101FA00003D0BC4204D11C030AD800221B0D1B0520
:101FB00001264B4009D44B4003D58B4200D18242CD
:101FC000FFBD9942FCD19042FFBD0B43DB18034398
:101FD0001343F5D0C9434918FFBD0000FF070000B7
:101FE00000B5FFF7CFFF804100BDC04600B5FFF749
:101FF000C9FF01D9002000BD012000BD00B5FFF7D9
:10200000B9FF01D9002000BD012000BD00B5FFF7D8
:10201000B1FF804100BD012040054A00121804D8DC
:102020005A00121801D800207047012070470000A4
:102030000021002805D17047C1174840401AFAD046
:10204000C90713B5064B1B6898470CBC441CA2403B
:102050001005120B0349091B09051943114310BD53
:10206000EC1200201F04000010B54C00620D80230C
:10207000D218DB00D21A5B057E2A10DD9E3A13DAF5
:10208000CC170903490819435242D1406400013476
:102090001532202A05DAD0400843604310BD0020E5
:1020A00010BD0846604310BDC80FC018013810BDF0
:1020B00018B4024B5B6A019308BD0000580700206A
:1020C00010B50148FEF7E4F9A87B0010132370B5A2
:1020D0001D78012D15D039DD1E48FFF73FFB0600A6
:1020E0001D48FFF73BFB1D4C80223100200000F013
:1020F000B1F8022D27D01A48FFF728FB194B1860BA
:1021000070BD194B154C23606360A360E3602361CD
:102110006361A361E36123626362A362E362236399
:102120006363A363E36323646364A364E364236579
:102130006365A365E36523666366A366E366236759
:102140006367A367E367094BA364D4E7034C074BBA
:10215000A364D0E753440000534600005807002012
:102160004C330000EC120020C1200010712100103F
:1021700007B5604601880A0A0230DF2AFAD1C9B2DF
:10218000820804D3028840880004104300E00068FD
:10219000014A5050039007BD580700205143434364
:1021A000C9188C46110C83B24B4310B4040C614324
:1021B00092B280B2504362431C041B0C001910BC45
:1021C00059411304120CC01851416144704700007A
:1021D00010B50148FEF75CF94C7F0010132310B5D1
:1021E00010481C78FFF7BAFA0100012C0AD003DD71
:1021F00080220D4800F02EF80C48FFF7A7FA0C4B90
:10220000186010BD084C5422200000F023F8230071
:10221000084A80332168002900D122600434A34297
:10222000F8D1E9E753460000F01200204C330000DB
:10223000EC120020D121001001480421014B184765
:10224000500500206D170010014B1B681847000057
:1022500050050020014B5B68184700005005002026
:102260007047C046F8B557464E464546DE46E0B58F
:1022700099460A9B07009A460D9B8846934615008F
:102280000B9E9B0710D10C9B9E420DD29D1B1400F0
:102290000E005D4422004B46013431002020B84737
:1022A000A542F7D1B0460B9E002E27D044467519A3
:1022B0005346AA1B013E985D21004B46B847002EAD
:1022C000F6D123002C0098460D9B9B070FD55B464B
:1022D000E51A0C9BAB420AD94646984622004B466B
:1022E000310020200135B8470134A845F6D8200038
:1022F000F0BCBB46B246A946A046F8BD2C00E3E7B9
:10230000F0B54F464646D646C0B584B098460EABAB
:102310001B78129F994694460D9C109B119EBA07FC
:1023200025D4002E4BD19C4200D3BFE001223A407D
:1023300092461F2C00D9B8E00C9A551E302201E0BD
:10234000202C03D001342A55A342F9D85246002A42
:102350000DD0A6420BD9202C44D00C9A551E302209
:1023600001E0202C3ED001342A55B442F9D1FA06BE
:102370004DD57A053FD4002C39D10F9B102B00D1BD
:1023800079E00F9B022B00D18AE030230C9A0124C4
:1023900013704B46002B3FD02D230C9A135501345C
:1023A0000C9B624600930397434602960194FFF705
:1023B00059FF04B0E0BCBA46B146A846F0BD0122C0
:1023C00015003D40AA463A422FD04A46002A02D183
:1023D0000C323A4200D0013E9C42BAD21F2CABD9FB
:1023E000202E27D92024FA06DAD57A0503D4A34271
:1023F0002DD0A6422BD00F9B102B32D0022B20D0F9
:10240000202CCDD030220C9B1B191A700134202CAB
:10241000C6D04B46002BBFD17B070DD43B07BFD5A1
:1024200020230C9A13550134BAE79C429FD21F2CEB
:1024300000D881E720249AE72B230C9A1355013406
:10244000AEE7202CACD00C9B1B1901343AE0631E84
:10245000012C92D00F9A102A2AD0022A2FD01C00C9
:10246000D0E7BB060ED4202C9AD00C9B1A1901344D
:1024700078231370C4E7BB060DD478230C9A01248B
:102480001370BFE7202C00D18AE758220C9B1B1940
:102490001A700134B4E758230C9A01241370B1E781
:1024A0000C9A603301241370ACE7202400265EE709
:1024B000023CBA06E9D40C9A12191C00D8E70C9A0F
:1024C0009246534462221A709AE7C04610B500281B
:1024D00000D110BD01F0D6FAFBE7C0460B0010B5E5
:1024E000002802D049681B68984710BDF0B5DE4649
:1024F00057464E464546E0B59BB09B46249B8946D1
:102500009846259B0B900C924046424619009A46ED
:10251000FFF781FD002800D0D9E001224046514656
:10252000774B5242FFF772FD002800D0CFE0012226
:1025300040465146734B5242FFF752FD002800D0EF
:10254000C5E00022002340465146FFF749FD002820
:1025500000D0B9E1424653460A9209938023289A53
:10256000DB001A400E92289A1A4201D106232693C4
:102570000A9A099B1600134300D0C7E0289B002548
:1025800000261B0500D49BE100230D93269B190018
:102590000D9B994200DC9EE1C81A431E26938023BE
:1025A000289ADB001A430023002728920D93279BCB
:1025B0000024BB4200D9DC1B0223289A1A400E9249
:1025C000289A134203D07B427B415B421C400D9B07
:1025D000002B07D00A9809992A003300FFF7A7FCBF
:1025E0000A9009910022002340465146FFF7F8FC6B
:1025F000002805D08020000684460999614409918D
:10260000289A414B0B9D13400493269B0A9A0293F0
:10261000099B03940092019349465B4628000C9A5B
:1026200000F08AF90400002F62D0289B220098064F
:102630001F23C0179843631C984649465B46653084
:10264000A8470D9B0025DA179C18DB0F9A465440CB
:10265000013F01E0202D13D00AAA94461F23200039
:1026600063440A2101355E19FFF71CFA30313170DD
:1026700020000A21FFF716FA26000400092EE9D8E7
:1026800005230693002304930A33039353460597C7
:102690000B9F029312AB009342465B4649463800BB
:1026A0000195FFF72DFE0E9B0400002B20D00C9B04
:1026B000C51A279BAB421BD91E0022005B46494628
:1026C00020200135B8470134AE42F6D810E0289BEF
:1026D00042460493279B49460393269B0B980293FB
:1026E0005346009201935B460C9A00F025F90400D2
:1026F00020001BB0F0BCBB46B246A946A046F0BDC8
:10270000FFFFEF7FFFFFEFFFFFF7FFFF734B099F17
:102710009C467800400D6044FFF78EFC704A714B78
:10272000FFF71FFC704A714BFFF7FCFB3B03704A3D
:102730001B0B1A4304000D00300011006D4B0022EA
:10274000FFF7EBFB6C4A6D4BFFF70BFC02000B0035
:1027500020002900FFF7E6FBFFF786FC0D90FFF74E
:102760006BFC674A674B04000D00FFF7FAFB002281
:10277000654BFFF7D7FBFFF777FC644A0600644B15
:1027800020002900FFF7EDFB040030000D000F963C
:10279000FFF752FC5F4A604BFFF7E3FB02000B00C0
:1027A00020002900FFF7B9FB02000B0006000F0014
:1027B000FFF7D7FB320004000D003B00300039006A
:1027C000FFF7B0FB002210901191544B200029001C
:1027D000FFF7ADFB0022524BFFF7A4FB02000B00FA
:1027E00020002900FFF7A3FB00224E4BFFF79AFBC6
:1027F00002000B0020002900FFF799FB0D0080214B
:10280000320004003B000020C905FFF786FB0200F0
:102810000B0020002900FFF785FB02000B00109839
:102820001199FFF784FB0022314BFFF77BFB3E4AF7
:102830000F9B9446634400221B05FFF792FB0500A3
:102840000E0002000B000A980999FFF7C9FB002847
:102850000AD00D9B2800013B31000D930022304B24
:10286000FFF765FB05000E00C6270D992B006331AD
:102870008F42BF4128997F420437090500D496E66C
:10288000334300D182E6099C284A2100284B0A984C
:10289000FFF7B4FB002808D000222100254B0A983E
:1028A000FFF79EFB002800D070E6269B002B00D18E
:1028B0007DE60E9B5A1E9341269AD31A269376E6FE
:1028C000002304270D9372E643460A9380231B06D8
:1028D0005344099342E60023269360E601FCFFFF80
:1028E000FB799F501344D33FB3C8608B288AC63FFF
:1028F0000000F03F0000F83F61436F63A787D23FBD
:1029000071A379094F930A400000E03F1655B5BB0B
:10291000B16B0240EF39FAFE422EE63F00002C4038
:102920000000244000001840FF0300002D431CEB72
:10293000E2361A3F80842E41F0B54E46DE465746B9
:102940004546E0B597B09946209E219F229B83463D
:10295000984607910C923B00320030003900FFF797
:102960005AFB002800D0A9E1012230003900CA4BEF
:102970005242FFF735FB002800D0E1E00122300091
:102980003900C64B5242FFF741FB002800D0B7E0A8
:10299000002230003900C24BFFF738FB002800D07E
:1029A00099E0002230003900BE4BFFF719FB0028E8
:1029B00000D090E00022002330003900FFF710FB28
:1029C000002800D0B1E000230D93249B5B0501D4C7
:1029D0000623984608AB9C46172200243023414624
:1029E000624404E0013413550139202C01D0092937
:1029F000F8D8884630003900FFF736FB4346DA0046
:102A0000A94B05009B181A685B6808920993FFF7A9
:102A100013FB02000B0030003900FFF77EFA089A22
:102A2000099BFFF79EFA0A900B91FFF741FB824644
:102A3000FFF7FEFA02000B000A980B99FFF76DFAF8
:102A400000229A4B0A900B91FFF7E0FA002800D180
:102A5000C0E001239C46E2445046FFF7E9FA020039
:102A60000B0008980999FFF7C1FA002802D000234B
:102A70009A4601354346002B6AD008AB17269C4680
:102A800008956644554614E001235B4243440A21FD
:102A900028009A46FFF706F80134303137193970AB
:102AA00028000A21FEF7FEFF092D00D8D0E0D0460D
:102AB0000500202CE8D10EAB98460323249A13403E
:102AC000012B00D196E02023249A01930392239AAC
:102AD000434602921EE0249B58460493239B009693
:102AE0000197039343460C9A029307994B46FFF7CD
:102AF000FDFC17B0F0BCBB46B246A946A046F0BDEF
:102B0000249B5B070ED40322694B24990192039105
:102B100023990291009358464B460C9A0799FFF768
:102B2000A1FBE6E70422634BEFE73B003200002005
:102B30000021FFF7F2F9012306000F000D9344E78F
:102B4000249B0393239B0293042301935A4BE1E7B5
:102B50002800FFF771FA02000B0030003900FFF780
:102B6000DCF9524B002206000F00FFF739FA0EABDA
:102B7000984600280AD10022300039004B4BFFF75D
:102B800045FA002802D1EB0700D50135202C94D05E
:102B900008AA94461723280063440A2101341E1909
:102BA000FEF758FF3031280031700A21FEF752FF3E
:102BB000051EEBD10323249A1340012B1BD0202C9C
:102BC00000D180E70D9B002B35D02D224146631CA0
:102BD0000A5579E700220A980B99344BFFF700FA5F
:102BE000002800D046E75346002B51D101239C46D4
:102BF000E2443FE72024239B002BE0D00D9B002BD9
:102C000003D1249A0C33134202D0239B013B23931C
:102C1000239BA342D3D908AB9C461722302362449E
:102C2000202C00D14FE72399013413558C42C6D094
:102C3000202CF8D147E7249B5B0724D4249A230057
:102C4000120700D440E72022414601330A553BE7F2
:102C50005746089D202C00D12DE722003021404608
:102C6000002F09D00132B154202A00D123E7D343E9
:102C70001B191B18002BF5D10EAB98462E2341468D
:102C8000541C8B5482E72B224146631C0A551BE7D8
:102C9000DB0700D4EEE6A9E7FFFFEFFFFFFFEF7FC2
:102CA00065CDCD4165CDCDC1507E00100000E03F27
:102CB000587C00105C7C0010687C0010249B0393FF
:102CC000239B029303230193004B23E7647C0010B2
:102CD000F0B5DE464E4657464546E0B59FB01C006F
:102CE000289B91460993C94AC94B8B4608901A60A4
:102CF000002900D118E2002320789A46002800D14C
:102D00001AE226001D005C460AE02A006F1C4B46B2
:102D1000089D2100A8473D0001363078002870D07A
:102D20002528F2D110239B46083B9A46043B98463F
:102D3000023B00219C46721C107816000300203BC9
:102D4000DBB2102B03D8B34F9B00FB589F46030008
:102D5000303B092B32D900230A932A2868D000235C
:102D600098462E283ED00300683BDBB2122B1CD8BD
:102D7000A94A9B00D3589F46012301321943DBE740
:102D8000634601321943D7E7434601321943D3E77B
:102D90005B4601321943CFE7534601321943CBE773
:102DA00080235B007078194301360300253BDBB2BA
:102DB000532BAAD8994A9B00D3589F46002703005B
:102DC000B800C01901364000C018337830381A00F6
:102DD000303A0700092AF3D90A90180000239846D0
:102DE0002E28C0D180237078DB0019430300303BCC
:102DF000721C092B00D8A1E12A2800D1B2E11600EB
:102E0000B1E7A346AA462C00D14503D801235B4273
:102E10004B449A464B46524659460020089DA847C7
:102E200020001FB0F0BCBB46B246A946A046F0BD8C
:102E3000099B40CB0A96002E03DB50780993561C61
:102E40008DE72838014370420A9009935078561C48
:102E500085E7782800D1DFE1582800D14CE26F28BF
:102E600000D14FE3622801D100F030FC10230A00AA
:102E70009A430B92692801D000F0A9FC0A230C9315
:102E80004B0500D5D0E10B9A802311009B0019401F
:102E90008B461A4200D0A1E2802311005B0019404A
:102EA0008A461A4200D0B6E313005B0600D5EDE275
:102EB000130009991B0601D400F076FC08C91BB267
:102EC000D8171A18424092B209919346DA0F12921B
:102ED000002B09D1802310220B99DB000B4091437A
:102EE0000B91002B00D0E4E20B9A6123920600D5EF
:102EF00041230EA91F228C46DBB262440A3B5F4687
:102F00001395A34655460C9CB2460D9316000AE055
:102F10003033DBB201357355A74200D2EDE2202DEC
:102F200000D1EAE2070021003800FEF7BBFDCBB27A
:102F30000929EDD90D9A94466344DBB2EAE7802370
:102F40009B007078194301362FE77078682800D10C
:102F5000CDE180230136194327E770786C2800D132
:102F6000BFE180235B00194301361EE7462800D1EC
:102F70009BE10722099B0491073393430A9A1900A6
:102F80000392424602920CC908980092019309915B
:102F90002A004B462100FFF7CFFC01360500BCE6B6
:102FA0002A006F1C4B46089D21002520A8470136AA
:102FB0003D00B2E68B0700D4ADE1099B2A009A469A
:102FC0006B1C9846534601CB21009A46089F4B46FE
:102FD000C0B2B8470A9B9C466544012B00D886E2E4
:102FE000089B4746B04626004C4699463A002300C7
:102FF000013731002020C847AF42F7D1A1465346E0
:10300000340046460993013687E6C046D12C0010AD
:10301000C8120020707C0010B47C0010007D0010ED
:10302000099B04CB9B4643460992002B00D1C6E086
:1030300013789C46002B00D1BDE34346013B099A1F
:103040000133D0180A9F130001E0834203D05A785D
:103050000133002AF9D1099A0A979B1A0B9380230E
:103060000A00DB001A400C92194204D00B9B434526
:1030700001D943460B9302231A000A400D920B42DA
:1030800000D187E16046002800D168E10C9B002B4D
:1030900000D10DE1A844C246099B57465B1B9846E8
:1030A000089BB2462A0026004C46994609E02300B8
:1030B0003100551CC8474346585D002800D126E121
:1030C0002A009742F3D1A1463D00340056460D9B9D
:1030D000002B00D043E15B46013609931DE6099BB6
:1030E0001A0008CA9246002B48D0212211438B4671
:1030F0000EA884461F216144099500220F27A4468B
:103100000D0002E0202A0CD00B003C001C402000E7
:103110003730092C00D807380132A85419090F2B71
:10312000F0D86446099D32E0DC4B207808930023F8
:103130009A46002800D0E4E5002465E643460600F0
:103140000A9F9800C01801324000801916780300C9
:1031500030003038303B0928F3D93000984616004B
:103160000A9700E6099B023604CB9046D2434046BC
:10317000D2171040804609933078F4E510220800F9
:10318000904311321043834600224905B0D55B4677
:1031900006930823059343460493102303930023C7
:1031A000029316AB019200932A004B462100089827
:1031B000FFF7A6F85346050001360993ADE51378ED
:1031C0009C46002B00D1F7E202235B4237E7202325
:1031D00002009A43472A04D180231B01194302238A
:1031E0009843452801D1202319430722099B0491C4
:1031F000073393430A9A19000392424602920CC97C
:1032000008980092019309912A004B462100FFF78C
:103210006DF90136050080E510230C930C230A009C
:103220009A430B924B0503D501230B9A9A430B92B9
:10323000692800D127E6642800D124E60B9A802370
:1032400011009B0019408B461A4200D066E1802392
:1032500011005B0019408A461A4200D039E213007F
:103260005B0600D53CE113001B0600D4A6E2099BD7
:1032700004CB1204120C934609935B46002B00D03A
:103280009AE10B9A1033110099430B91520500D427
:1032900092E100239A460B9B06930A9B05934346B3
:1032A00004930C9B039300230CE12023194360E655
:1032B000099B0A9A5B1B98464B4691461F00B246F3
:1032C0002600089C2A003B003100A04743460135F8
:1032D000585D0028F6D14A463400B94656460A924F
:1032E000F5E6C0239B00B078194302365DE5C023A4
:1032F000B0781943023658E50C230A009A43143378
:103300001A43103B0B920C934B058DD496E7A146C4
:1033100034005646DBE60A9A012A00D853E26B1EB7
:103320009F18089BB04626004C4699462A00230069
:10333000013531002020C847BD42F7D1A1463400F5
:103340004646099B3A0001CB210098467D1C4B461E
:10335000089FC0B2B847434601360993DDE40B9B92
:103360000A99A846994200D8B5E68C466544ED1AFC
:10337000089B4746B04626004C4699463A00230033
:10338000013731002020C847AF42F7D1A1463400B1
:103390004646A0E60B9A0A98531C904200D814E2C5
:1033A00043199B1A1F00089BB24626004C469946BB
:1033B0002A002300013531002020C847BD42F7D143
:1033C0000A9BA14601330B93099B34001B78564698
:1033D0009C466046002800D058E67CE60722099B00
:1033E00007339343013294469C4462465F680992D6
:1033F0001A68FB171093119310981199030053400A
:103400000E930B007B400F9394460E9A0F9B121A5B
:103410008B410E920F93FB0F6246129300233A43A7
:103420009B463DD00B9A6123920600D54123002292
:10343000DBB20EA90A3B8C4692460D9343461F32DF
:1034400062441395159655460E9E0F9FA2469046D0
:103450000C9C14930CE03032D2B2434601355A55DD
:10346000BB4500D18AE1202D00D18AE106000F0082
:103470002200002330003900FEF752FBD2B2092AA5
:10348000E9D90D9B9C466244D2B2E6E7FF23099935
:1034900004C913401A00099117E5C04661220010C3
:1034A0000B9A1033110099430B915205BAD50023A2
:1034B0009A460B9B06930A9B0593434604930C9BE9
:1034C0000393129B02935346019316AB2A00009379
:1034D00021004B460898FEF713FF013605001CE457
:1034E000FF22099B02CB11408B460993C5E6534648
:1034F000454609930136FFF710FC56465C46AA463E
:10350000139DD6E708230C930B910B99642800D0E8
:1035100084E60B9B5B0500D586E6B4E40722099B95
:1035200007339343013294469C44624609921A68D9
:103530005B6810009B4613005A46134307D10B9A51
:103540001033110099430B91520500D5A1E60B9A57
:103550006123920600D541230022DBB20EA90A3B6B
:103560008C4692460D9343461F3262445F46129545
:10357000A34655460400B24690460C9E13930DE0B8
:103580003032D2B2434601355A550023BB4200D1F6
:1035900000E1202D00D100E104000F0032000023E3
:1035A00020003900FEF7BCFAD2B2092AE8D90D9BF7
:1035B0009C466244D2B2E5E70B9A6123920600D59D
:1035C0004123DBB20EA90A3B1F228C460D93230038
:1035D00062445C461295170055469B46B2460C9EC7
:1035E00008E03033DBB201357B55B4420ED3202DD9
:1035F0000CD0040031002000FEF754FACBB20929A8
:10360000EFD90D9A94466344DBB2ECE756465C462C
:10361000AA46129D3FE6099B1A0008CAD9171392C1
:103620005A184A409246DA0F1292002B08D1802392
:1036300010220B99DB000B4091430B91002B2BD1F7
:103640000B9A6123920600D541230EAA1F279446A8
:10365000DBB20A3B0D9567445D460993A346544689
:10366000B2460C9E08E03033DBB201357B55B442E4
:103670000ED3202D0CD0040031002000FEF712FAEA
:10368000CBB20929EFD9099A94466344DBB2ECE73F
:1036900056465C46AB460D9D0B9B2A0006930A9B43
:1036A00021000593434604930C9B08980393129BB7
:1036B000013602935B46019316AB00934B46FEF72F
:1036C0001FFE139B05000993FFF727FB02230C93B2
:1036D0001AE7099B04CB92461293002A08D1802353
:1036E00010220B99DB000B4091430B91002B2BD147
:1036F0000B9A6123920600D541230EAA1F279446F8
:10370000DBB20A3B0D9567445D460993A3465446D8
:10371000B2460C9E08E03033DBB201357B55B44233
:103720000ED3202D0CD0040031002000FEF7BAF992
:10373000CBB20929EFD9099A94466344DBB2ECE78E
:1037400056465C46AB460D9D0B9B2A0006930A9B92
:1037500021000593434604930C9B08980393002390
:1037600002935B46019316AB00934B46FEF7C8FDF0
:10377000129B050009930136FFF7CFFAB44200D837
:1037800071E6149B54460E960F97AA469846159ECE
:10379000139D8EE6A64200D8FBE6139B564698463C
:1037A000AA465C46129D76E508C9D8171A18424009
:1037B0000991FFF78AFB00230B9350E4099B04CB8C
:1037C0009346099359E52F00BBE50B9301E6063BB1
:1037D0000C939AE600B585B0039101210290009305
:1037E000034813004A4202A9FFF772FA05B000BD70
:1037F000DD24001010B5094A0300146884B0002CC1
:1038000008D0012200910648524203A9A047012096
:1038100004B010BD00F082F90020F9E7C8120020C2
:10382000CD24001000BEFDE710B5FFF7FBFFC0463A
:1038300070B5FDF7D9FF074D074EB54209D20024F8
:10384000013E761BB60808CD984723000134B342E9
:10385000F9D170BD347B00103C7B0010030010B523
:10386000080011001B68984710BDC046F0B54646D9
:103870004F46D646C0B5437D80460E001700002B4C
:1038800046D0002A3FDD4B1E9946244B01250024DB
:1038900000209A460DE04B461B5D0D3B5A425341BA
:1038A000325DDBB20A2A0BD02B00013401359F4276
:1038B0001ADD002CEFD14346325D1B7D0A2AF3D17D
:1038C000002BF1D1A04204DA4346211A1B683018BC
:1038D0009847434650461B68022198470134280008
:1038E0002B0001359F42E4DC874204DD4346391A50
:1038F0001B6830189847F619013E33780D3B5A4241
:10390000534142461375E0BCBA46B146A846F0BDE5
:103910000368110030009847F5E7C046A07E00100C
:10392000F0B5C6460C000968060000B5802906D02F
:103930004B1C23606418267180BCB846F0BD0F4B49
:103940001D68002D16D0231D98460D4F02E02D69ED
:10395000002D0FD02B68002BF9D03B68002B01D035
:10396000AB42F4D1280041462268FFF77FFF2D6962
:10397000002DEFD101230021DBE7C046C01200205B
:10398000C4120020F0B5DE4657464E464546E0B527
:1039900085B017001C0006000D00FDF771FD002327
:1039A000314A12184B41002B59DB304908008A4636
:1039B00004F08AF801906B1C03D1300003F0E2FFA1
:1039C0000500002C26D12A4B98462A4B1C68002C57
:1039D00015D0002F21D1284F02E02469002C0ED0F1
:1039E0002368002BF9D03B68002B01D0A342F4D10F
:1039F00020002A003100C0472469002CF0D1019B2F
:103A0000002B28D1280005B0F0BCBB46B246A94621
:103A1000A046F0BD194B9846D7E7174B994602AB25
:103A2000DF1D0A239B4602E02469002CE7D02368AF
:103A3000002BF9D04B461B68002B01D0A342F3D1D9
:103A40002A0031002000C0475B46012239002000D7
:103A50003B70C047E8E7504604F00EF8D2E7012279
:103A6000074B5242A1E7C04640420F0088050020A4
:103A70005D380010C0120020C41200206D38001004
:103A8000FFFFFF7FF0B5CE46474680B583B06B465B
:103A90000600DD1D2870FDF7F3FC00231A4A1218FA
:103AA0004B41002B2BDB19490800884604F00CF829
:103AB000174B81461C68002C14D0164F02E0246975
:103AC000002C0FD02368002BF9D03B68002B01D0CD
:103AD000A342F4D1200001222900FFF7C7FE246988
:103AE000002CEFD14B46002B05D1300003B0C0BCF9
:103AF000B946B046F0BD404603F0BEFFF5E70122EF
:103B0000054B5242CFE7C04640420F0088050020D7
:103B1000C0120020C4120020FFFFFF7F70B5040018
:103B200003F030FF01230100050001222000FFF710
:103B300029FF084B1C68002C06D06368002B05D0B9
:103B400098472469002CF8D1280070BD2469002C06
:103B5000F3D1F9E7C0120020F0B5CE46474680B554
:103B6000A5B004000D00FDF78BFC00232A4A1218B3
:103B70004B41002B49DB294E300003F0A5FF002309
:103B80000700039322002B00254803A9FFF722FE1C
:103B9000039B8046002B14D1224B1C68002C06D0BE
:103BA0006368002B0BD098472469002CF8D1002FB4
:103BB00027D1404625B0C0BCB946B046F0BD246907
:103BC000ECE7184B1D689946002D22D0164C02E0F8
:103BD0002D69002D11D02B68002BF9D02368002B04
:103BE00001D09D42F4D1039B28001A0004A901933F
:103BF000FFF73CFE2D69002DEDD14B4603951C6867
:103C0000CCE7300003F038FFD3E70122074B5242E4
:103C1000B1E70395CBE7C04640420F00880500207E
:103C200021390010C0120020C4120020FFFFFF7FC6
:103C30000FB400B583B004A901C90191FFF78CFF4F
:103C400003B008BC04B0184710B5024800F00CF8E7
:103C500010BDC046E412002010B508220149FEF74D
:103C6000F9FA10BDE412002030B5002589B0040037
:103C70000922002101A80095FEF7E6FA0922002199
:103C800005A80495FEF7E0FA4B236A4668461370D0
:103C900004A90D2203F0E8FE152108222000694442
:103CA000FEF7D8FA09B030BD014B18607047C04626
:103CB0007C08002010B50A000100024802F0DEFF77
:103CC00010BDC046E4090020014B18687047C0468B
:103CD0007C08002010B582B0FFF7F6FF002807D05F
:103CE00003F096FA03000020002B12D002B010BDA2
:103CF000684603F0E3FC114C6946200003F0E4FC45
:103D0000002804D02000FFF7CFFF2000E8E70138AB
:103D1000ECE7FFF7D9FF040003F096FA074B9C424B
:103D200002D001204042E1E7236820005B6B984706
:103D30000020FFF7B9FF01204042D7E7900500209F
:103D400010B50520FDF7A4FC030C6420034958437B
:103D5000FDF7A8FE0338FDD210BDC0469A3B000017
:103D6000184B70B5C4580500002C14D021680029E8
:103D700006D06368A268144803F048F90023236062
:103D80000C202056002810DA0D202056002803DAD7
:103D900000220C4BEA5070BD03F070F90D20205644
:103DA00003F054F9FF236373F2E703F067F90C2083
:103DB000205603F04BF9FF230D20237320560028D3
:103DC000E6DBE9E74C080000C07E0010F0B5C6460F
:103DD0003F4C404B00B5C450002306212200012671
:103DE00084B02360013BA381019112310500009151
:103DF00039482100231D0832029603F03FF80028BD
:103E00005FD0636835485A1D1203DB011A43344BF7
:103E100001681A4030238B43324990460B60036897
:103E2000300098430860802120682F4B4904C31854
:103E30001960A16880224B005B18DB00C3181F00CB
:103E40009202C8373A60C0229202BA6042467A6053
:103E5000264ADC331A6001231D22009602F0B0FFCF
:103E6000234A236894466344190D06311820C9B2C9
:103E7000FCF748FA012200211820FCF75DFA012125
:103E80001820FCF773FAA268002053009B182268E0
:103E9000DB009446174A6344D8331A6003F0DEF817
:103EA0002073002003F0DAF8237B40B204376073FC
:103EB0007F2B06D8002804DB002004B080BCB84665
:103EC000F0BD2800FFF74CFF06204042F5E7C04652
:103ED000980900204C080000C07E001078C0014006
:103EE000FFFFFF9F78D001403820000018771C2486
:103EF0000000E0AF01E00000F0B54E464546DE466A
:103F00005746E0B589461600984687B0002900D18B
:103F10001FE1934A934B9446C45818202368634486
:103F2000190D0631C9B2FCF7EDF98D4A23689446A4
:103F30006344190D06311D20C9B2FCF7E3F90122D3
:103F400000211D20FCF7F8F9D02380221B069204E3
:103F50009A614346002B00D11CE14B46002B00D157
:103F6000F5E001252A00CC27A168BC468A402068DC
:103F70007D4F0368934303604B005B18DB00C2185E
:103F8000944462461268C31892466268053212036E
:103F90009346524617405A463A436768FF013A43F0
:103FA00067463A60714A2F009446802263441206A5
:103FB0001A601A608022002352040092019302F0DA
:103FC000ADFE2800A16823680A1D9040049280225B
:103FD00092019A1810600800083087408800176026
:103FE000F2001818013A02614A005218D200604FDC
:103FF0009A18D8321760109FBF1BFF00013F07615E
:104000005C48676810601F20384010600C22A25680
:10401000594F93462A005846A02582405748ED053F
:104020002A505A46920194468020674440043A68D8
:104030000242FCD160460D2701220390E7574F480A
:10404000BA402A50A022D20592464B4A0398944681
:10405000BD018022AA446544844652042868104267
:10406000FCD1624603923E4A45489A18120DD5008B
:104070005A46D2020240A02005954D19ED032A436D
:10408000404DC0051543049A8446AB4695004A4608
:104090000398FF02604402608446581981466046D6
:1040A0004A464260B20882605A46C2603448109A5A
:1040B0003840059F1035B946049F5D19BC46E14460
:1040C0004F46FF033843304F38439708B208BA1AB7
:1040D00057463D604546AD197D60BA6001228A4071
:1040E000F860186802431A600C22284B80219C4615
:1040F000A25649049201624413680B42FCD10D227E
:10410000224B80219C46A2564904920162441368C6
:104110000B42FCD1002132004046FEF795F8A16821
:1041200023684A005218D2009B18194AD8331A60E3
:10413000D02380221B0692045A61FFF701FE002063
:1041400007B0F0BCBB46B246A946A046F0BDC1468A
:1041500007E74346002B00D0DBE605204042EFE7AF
:104160000000E0AF4C0800007F00FEFFD010000010
:1041700020600000406000000C000050440400007B
:10418000FD7F00FF19004000290040001000005092
:1041900003A000004B46002BC1D001273A00CC25DC
:1041A000A168AC468A4020684D4D03689343036084
:1041B0004B005B18DB00C218944462461268C318B7
:1041C00092466268013212039346524615405A469F
:1041D0002A436568ED012A4365462A60414A3D004D
:1041E00094468022634412061A601A6080220023DB
:1041F00052040092019302F091FD3A00A0682168F8
:10420000031D9A409A4680239B01CB181A60020036
:104210000832954082001D60F3008A18013B13614B
:1042200043001B18DB00304DCB18D8331D604546CA
:1042300015612E4A65681A601F222A401A600C23F5
:10424000E356A0229F409C46294BD205D750634697
:104250009B019B4617008025264A5F445A446D0403
:1042600013682B42FCD16246D2029446224A234B69
:10427000904662464546CB181B0DDB001B182A40B2
:10428000DB0313431E4AB60813434A463A605246BC
:1042900095004D197D60BE60FB60012383400D6871
:1042A000184A2B430B6080215A44490413680B427F
:1042B000FCD10122A368216818339A408A608B6878
:1042C0001A42FCD00122A16820688A400368934307
:1042D0000360002318220093013302F071FD1EE7F2
:1042E0007F00FEFFD0100000206000004060000052
:1042F000440400000C000050FD7F00FF0000E0AF10
:10430000190040001000005010B51720FCF7A0F86D
:10431000D024802324061B0400220121636217207D
:10432000FCF70AF81820FCF793F880235B0463621B
:104330001920A361FCF78CF880239B0463626361FE
:1043400010BDC04670B5D024802524062D04A5617B
:10435000142002F0F7FF6561FA2002F0F3FF182045
:10436000FCF776F880235B04A36270BD002300B5E0
:1043700085B003930A4BD2021A40082309070A4367
:1043800008490093114302AB49BA0422029100216B
:10439000FFF7B2FD002801D1039840BA05B000BD77
:1043A00000F8FF0F0400004010B588B0012916D0B6
:1043B000154BD2021A40082309070A43134902ACDD
:1043C0000A4302920093042223000021FFF794FD88
:1043D0000123002801D19B00E05808B010BD0A4B12
:1043E000D2021A400A4B02AC1A43182302920093DD
:1043F000042223000021FFF77FFD0028EDD10523D3
:104400009B00E058E9E7C04600F8FF0F04000040B9
:104410000400005010B588B0012916D0154BD20207
:104420001A40082309070A43134902AC0A430292BF
:104430000093042223000021FFF75EFD01230028E2
:1044400001D19B00E05808B010BD0A4BD2021A40BF
:104450000A4B02AC1A431823029200930422230051
:104460000021FFF749FD0028EDD105239B00E0580E
:10447000E9E7C04600F8FF0F0200004002000050CC
:1044800010B588B0012916D0154BD2021A40082366
:1044900009070A43134902AC0A430292009304221B
:1044A00023000021FFF728FD0123002801D19B00F4
:1044B000E05808B010BD0A4BD2021A400A4B02ACB9
:1044C0001A43182302920093042223000021FFF7CD
:1044D00013FD0028EDD105239B00E058E9E7C04615
:1044E00000F8FF0F0100004001000050F0B55BBA7A
:1044F000D6464F464646C0B5704CD2022240090708
:104500000A436F4984B0114302AA924649BA6D4AE0
:10451000039394466C4B0291C458182023680127DA
:104520006344190D0631C9B2FBF7ECFE654A2368F6
:1045300094466344190D06311D20C9B2FBF7E2FE13
:10454000012200211D20FBF7F7FED02380221B064D
:1045500092049A613A00A16820688A4003685B4E21
:10456000934303604B005B18DB00C518CC352A6809
:10457000C3189046626801321203944642461640C0
:10458000624632436668F60132432A60504A3D0073
:1045900094468022634412061A601A608022002327
:1045A00052040092019302F0B9FB3A00A06821681E
:1045B000031D9A40994680239B01CB181A60020084
:1045C000083295401D603F2382008A181361430022
:1045D0001B18DB003F4DCB18D8331D60002515613B
:1045E0003D4A65681A601F222A401A600C23E35670
:1045F000A0229F409C46394BD205D75063469A0172
:10460000A0238026DB05D718354B7604D5182B68F8
:104610003342FCD16546ED02AC46324D294BA846EB
:1046200065464646CB181B0DDB001B183540DB03E7
:104630002B432D4D2B4355463D604D46AE00022584
:104640008E197E60BD60FB60012383400D682B43A3
:104650000B60264B80219C464904624413680B4240
:10466000FCD10122A368216818339A408A608B68C4
:104670001342FCD00122A16820688A40036893435A
:104680000360002318220093013302F099FBA16814
:1046900023684A005218D2009B18154AD8331A6072
:1046A000D02380221B0692045A61FFF749FB0020A9
:1046B00004B0E0BCBA46B146A846F0BD00F8FF0F12
:1046C000040000C00000E0AF4C0800007F00FEFFC7
:1046D000D010000020600000406000004404000092
:1046E0000C000050FD7F00FF19004000100000503A
:1046F00003A00000F0B5D6464F464646C0B584B08C
:1047000002ACA2466F4CD202224009070A436E490E
:1047100001270A430292524653606C4A6C4B9446FE
:10472000C458182023686B4E6344190D0631C9B272
:10473000FBF7E8FD654A236894466344190D06318A
:104740001D20C9B2FBF7DEFD012200211D20FBF771
:10475000F3FDD02380221B0692049A613A00A168DF
:1047600020688A400368934303604B005B18DB00BA
:10477000C518CC352A68C318904662680132120306
:10478000944642461640624632436668F60132431A
:104790002A60514A3D0094468022634412061A6002
:1047A0001A608022002352040092019302F0B6FAAC
:1047B0003A00A0682168031D9A40994680239B0116
:1047C000CB181A600200083295401D603F2382001A
:1047D0008A18136143001B18DB00404DCB18D833F7
:1047E0001D60002515613E4A65681A601F222A4037
:1047F0001A600C23E356A0229F409C46394BD205F9
:10480000D75063469A01A0238026DB05D718364B84
:104810007604D5182B683342FCD16546ED02AC46D0
:10482000324D2A4BA84665464646CB181B0DDB0089
:104830001B183540DB032B432D4D2B4355463D6064
:104840004D46AE0002258E197E60BD60FB600123DF
:1048500083400D682B430B60264B80219C46490406
:10486000624413680B42FCD10122A368216818330B
:104870009A408A608B681342FCD00122A1682068AC
:104880008A40036893430360002318220093013396
:1048900002F096FAA16823684A005218D2009B18C9
:1048A000154AD8331A60D02380221B0692045A611D
:1048B000FFF746FA002004B0E0BCBA46B146A8466D
:1048C000F0BDC04600F8FF0F040000C00000E0AFDC
:1048D0004C0800007F00FEFFD010000020600000A8
:1048E00040600000440400000C000050FD7F00FF09
:1048F000190040001000005003A00000F0B5D6469B
:104900004F464646C0B584B002ACA2466F4CD202B8
:10491000224009070A436E4901270A430292524680
:1049200053606C4A6C4B9446C458182023686B4EF5
:104930006344190D0631C9B2FBF7E4FC654A2368EC
:1049400094466344190D06311D20C9B2FBF7DAFC09
:10495000012200211D20FBF7EFFCD02380221B0643
:1049600092049A613A00A16820688A4003689343E0
:1049700003604B005B18DB00C518CC352A68C318F0
:1049800090466268013212039446424616406246DF
:1049900032436668F60132432A60514A3D0094462C
:1049A0008022634412061A601A6080220023520497
:1049B0000092019302F0B2F93A00A0682168031D49
:1049C0009A40994680239B01CB181A600200083256
:1049D00095401D603F2382008A18136143001B1815
:1049E000DB00404DCB18D8331D60002515613E4AD1
:1049F00065681A601F222A401A600C23E356A02221
:104A00009F409C46394BD205D75063469A01A0235C
:104A10008026DB05D718364B7604D5182B68334231
:104A2000FCD16546ED02AC46324D2A4BA8466546A0
:104A30004646CB181B0DDB001B183540DB032B4310
:104A40002D4D2B4355463D604D46AE0002258E1937
:104A50007E60BD60FB60012383400D682B430B60CB
:104A6000264B80219C464904624413680B42FCD1CA
:104A70000122A368216818339A408A608B68134228
:104A8000FCD00122A16820688A4003689343036038
:104A9000002318220093013302F092F9A1682368E1
:104AA0004A005218D2009B18154AD8331A60D023F6
:104AB00080221B0692045A61FFF742F9002004B0DD
:104AC000E0BCBA46B146A846F0BDC04600F8FF0FAC
:104AD000020000C00000E0AF4C0800007F00FEFFB5
:104AE000D01000002060000040600000440400007E
:104AF0000C000050FD7F00FF190040001000005026
:104B000003A00000F0B5D6464F464646C0B584B077
:104B100002ACA2466F4CD202224009070A436E49FA
:104B200001270A430292524653606C4A6C4B9446EA
:104B3000C458182023686B4E6344190D0631C9B25E
:104B4000FBF7E0FB654A236894466344190D063180
:104B50001D20C9B2FBF7D6FB012200211D20FBF767
:104B6000EBFBD02380221B0692049A613A00A168D5
:104B700020688A400368934303604B005B18DB00A6
:104B8000C518CC352A68C3189046626801321203F2
:104B9000944642461640624632436668F601324306
:104BA0002A60514A3D0094468022634412061A60EE
:104BB0001A608022002352040092019302F0AEF8A2
:104BC0003A00A0682168031D9A40994680239B0102
:104BD000CB181A600200083295401D603F23820006
:104BE0008A18136143001B18DB00404DCB18D833E3
:104BF0001D60002515613E4A65681A601F222A4023
:104C00001A600C23E356A0229F409C46394BD205E4
:104C1000D75063469A01A0238026DB05D718364B70
:104C20007604D5182B683342FCD16546ED02AC46BC
:104C3000324D2A4BA84665464646CB181B0DDB0075
:104C40001B183540DB032B432D4D2B4355463D6050
:104C50004D46AE0002258E197E60BD60FB600123CB
:104C600083400D682B430B60264B80219C464904F2
:104C7000624413680B42FCD10122A36821681833F7
:104C80009A408A608B681342FCD00122A168206898
:104C90008A40036893430360002318220093013382
:104CA00002F08EF8A16823684A005218D2009B18BF
:104CB000154AD8331A60D02380221B0692045A6109
:104CC000FFF73EF8002004B0E0BCBA46B146A84663
:104CD000F0BDC04600F8FF0F010000C00000E0AFCB
:104CE0004C0800007F00FEFFD01000002060000094
:104CF00040600000440400000C000050FD7F00FFF5
:104D0000190040001000005003A00000F0B5DE1CA8
:104D10001D000323040083B09E43012924D00420F6
:104D20002133164FD2023A4009072A430A43802111
:104D30000430C90580000A4320180436426000216F
:104D4000009604222000E318FFF7D6F8061E0FD1C4
:104D50002100089B2831994203D02A001800FDF752
:104D600079FA300003B0F0BD002010361133D8E7D7
:104D700001000348FEF75CFFF3E7C04600F8FF0FB1
:104D8000A47E0010F0B545465746DE464E46E0B5D7
:104D90008DB002AF9846BA60DA1C03239A4305002F
:104DA000FA60022925D028003B6D2830984248D06F
:104DB000434609071943BB68DA02294B1A40C0234E
:104DC00011431B06194369624246396DFDF742FAE9
:104DD00029000023FA682800043224310093FFF7E9
:104DE0008BF8BD460BB0F0BCBB46B246A946A04608
:104DF000F0BD1C4B1C4C9B4608239A461833994621
:104E0000796001E0013C16D35B463B615346009359
:104E10001023042200212800FB186E46FFF76CF8CF
:104E2000002800D178694B46B5460342EAD07B683A
:104E30001900002CB7D10D48FEF770FE0620404245
:104E4000CFE7BB680907DA02054B1A4043460B431C
:104E500013431A00C0231B061A436A62B8E7C04610
:104E600000F8FF0F04400040E7030000EC80001052
:104E7000836870B5CC0B0500E403A3420BD06340FC
:104E80001A0E19D1FF22120413420CD1FF22120272
:104E9000134201D1AC6070BD012128000A4A230AE7
:104EA000FFF730FEF6E7230C01212800074AFFF741
:104EB00029FEAB686340E9E7230E0121044AFFF7AE
:104EC00021FEAB686340DDE70A0001000B00010032
:104ED0000C000100F0B5C646033083089C4600B5BF
:104EE0008E1E002B1DD00B0033435B0754D163464D
:104EF000013B0A2B50D9C3089846424630000B00AC
:104F0000D2008F1830CB30C09F42FBD14346B4183B
:104F10005F008A18BC4504D0538810881B040343E3
:104F2000236008000B888A1D5BBA73808B1C1B688A
:104F30000A301BBA7360126812BAB260006800BA15
:104F4000F060452B03D0300080BCB846F0BD082A85
:104F5000F9D10B000A000C00B232AE331B88106886
:104F60002E3425691A18AA4222D83A31C9180818CD
:104F700081424AD20027002504E0DD2A1CD0C9184E
:104F800088422CD94B780233CA189042F7D30A785A
:104F9000302AF2D10D00F2E7634632009800301853
:104FA000938854881B04234308C28242F8D1B8E78F
:104FB00001235B42B360C6E78A1C90468A78002AC8
:104FC000DDD142465278502AD9D142469278F22A0F
:104FD000D5D14246D278012AD1D10F00CFE7002D9A
:104FE00010D006230422002F0AD0A28BD20601D5AE
:104FF000012213438422B15CB1520432B354A2E7BC
:105000001300F2E702230022EDE70023EDE7C0469C
:10501000F8B5CE4647460500894680B5002932D00E
:1050200001230121204AFFF76DFD01230121280002
:105030001D4AFFF767FD03230327984601264024F6
:105040000BE0012002F07EF9013C33000121280031
:10505000154AFFF757FD002C10D001212800124AF5
:10506000FFF70EFA0028ECDB3B0003404345E8D194
:10507000FF28E6D0C0BCB946B046F8BD49460B484B
:10508000FEF7D6FDF6E700230121074AFFF73AFDB8
:10509000002301212800044AFFF734FD00230127E3
:1050A00098460026CBE7C0461F000100D47E0010C2
:1050B000F0B5D6464F464646C0B5C37C05000F0046
:1050C000924682B0002B04D1006801F0B1FC0128A7
:1050D00063D1280001F0B2FCAB7C002B05D101218B
:1050E0002800FFF795FF0123AB74EB7C002B61D008
:1050F000FA24A40002E0013C002C4ED0082200213A
:105100002800FFF751F9431CF5D0C30543D5C02251
:1051100003035B0D591ED200914200D3B1E0820718
:1051200000D5AEE02C002834002202212800009493
:10513000FFF7ECFD002826D1298D6A8D002928D0A3
:105140000123EB74634B9C460B005340634500D036
:105150009EE0D24392B2914200D09FE00B2900D84A
:10516000A2E0237AAB730F2362791340022B17D985
:105170000C2900D1A4E0012B58D0022B35D0002BF4
:1051800045D00B20404202B0E0BCBA46B146A8462A
:10519000F0BD002AD4D10023EB7401204042F2E795
:1051A000627A944666466A7BB21AD2B2142ADFD873
:1051B0006E73DDE7042200212800FFF72BF983B28C
:1051C0009846454B000499461B88040C434502D081
:1051D000862323424AD14346002B4CD14B464246BC
:1051E0001A80A30600D583E7D7E7102965D9E279AD
:1051F0000220A218D3789B000433D3181C1B0C1B6D
:1052000091785246C9070C433C601360BBE71B29E9
:105210005CD9E3792D8AE3185A8995424AD15246DE
:1052200010331C1B0C1B3C601360ACE710294AD9DF
:10523000E379E318DA78920004329B181A7B1C1B7E
:10524000091B882A33D15A7B6C2A30D1DA7C002A98
:1052500027D11A7D102A24D15A7D182A21D15246ED
:10526000183918333960012013608CE721001B487E
:10527000FEF7DEFCAFE7042200212800FFF73EFB2B
:10528000ACE7012301212800154AFFF73BFC82E728
:105290001448FEF7CDFC0120404274E70220404252
:1052A00071E70A2040426EE7032040426BE7092085
:1052B000404268E70620404265E70720404262E737
:1052C000042040425FE7082040425CE7052040425E
:1052D00059E7C046FFFF0000F6130020F87E0010DB
:1052E0000D000100247F0010F0B5DE4657464E4603
:1052F00045460400E0B585B09A468946934601F0DC
:105300009DFBA37C002B05D101212000FFF780FE2F
:105310000123A374A37B002B24D02E4E2E4FB36AFF
:1053200098460EE0A17B002903D1237B627B9A4241
:105330001CD14346ED1ABD4243D8FA20800001F04B
:10534000D1FF200003AA02A9B56AFFF7B1FE012828
:10535000E8D103990298FFF7BDFD0100200001F09C
:1053600073FBDFE7237B627B9A42D6D05A465146D5
:105370000C3292B20A80D2430B714A80524649469F
:105380005171002251468A714946023948424141D1
:10539000504649000C310133C171028142812373AF
:1053A0005B4603320F33934300900022022120001A
:1053B000FFF7E8FC05B0F0BCBB46B246A946A046E4
:1053C000F0BD637B227B0548FEF732FC02204042A1
:1053D000F0E7C0460040054040420F00507F0010FB
:1053E000F0B557464E464546DE46E0B5294E924654
:1053F000B76A9846284AB36A0500894683B0DB1B22
:1054000093422ED8254B9B4610E0022820D000283E
:1054100003DB01005846FEF70BFCFA20800001F088
:1054200061FFB36A1C4ADB1B93421AD86946280005
:1054300001AAFFF73DFE041E23D00128E5D1019902
:105440000098FFF747FD0100280001F0FDFAE4E7AE
:105450000099019B4A0028685208C90F01F0A2FF79
:10546000DBE743465246494602240D48FEF7E0FB7F
:105470006442200003B0F0BCBB46B246A946A04639
:10548000F0BD009A424500D9424601990C9802F0BD
:1054900023FAEEE7004005403F420F00747F001002
:1054A000A07F0010F0B545469046402257464E4634
:1054B000DE469146803A93469246E0B50700402684
:1054C00083B08B449A445B469C19BB68E50BED03A3
:1054D0009D420BD06B401A0E36D1FF2212041342AC
:1054E00029D1FF22120213421ED1BD60620453462D
:1054F00080249B19520C2402009301214B46380052
:105500002243FFF73FFC002827D1B04525D93300BF
:10551000402240339146434501D81E00D3E742461E
:10552000921B91461E00CEE7012138000E4A2B0A3D
:10553000FFF7E8FAD9E72B0C012138000B4AFFF7F7
:10554000E1FABB686B40CCE7002301213800084A30
:10555000FFF7D8FABB686B40BFE703B0F0BCBB46AF
:10556000B246A946A046F0BD0A0001000B000100AA
:105570000C000100F0B5CE46474680B5060083B06A
:105580000400080099468846170002F0FBF94436EB
:10559000451C3A004946701902F09EF92A0041461E
:1055A0003000ED19FCF756FE2A0080231C321B0147
:1055B0009A4220D8218A0A9B013189B21B03218299
:1055C00009041943022319430023082723642300F5
:1055D000FF37E163200000216763A56328330C3A9D
:1055E000FFF782FE002806D12B003A00022120009E
:1055F0000096FFF7F5FE03B0C0BCB946B046F0BD5B
:10560000F0B5D6464F464646C0B50400060082B007
:10561000080017008A46994602F0B4F9431C9846E0
:10562000443605001A0051463000FCF713FE43468D
:10563000F2183B0A177053703B0C3F0E9370D770F3
:105640002A00802321326F1D1B019A4223D8082390
:10565000FF33984663633B041B0CA3634B46218ACC
:105660001B03013189B22182090419430223194322
:10567000002323642300E163200000210C3A283337
:10568000FFF732FE002806D13B00424602212000EF
:105690000096FFF7A5FE02B0E0BCBA46B146A846A8
:1056A000F0BDC046836870B5CE0B04000D00F60354
:1056B0009E420BD073401A0E37D1FF2212041342C0
:1056C0002AD1FF22120213421FD1A6606A0480254C
:1056D000520C2D022A4301212000FEF7D1FEC025E5
:1056E000A36806006D05AB420DD06B401A0E38D191
:1056F000FF221204134228D1FF22120213421CD1AE
:10570000C0235B05A360300070BD01212000194A51
:10571000330AFFF7F7F9D8E7330C01212000164AC6
:10572000FFF7F0F9A3687340CBE7330E0121134A6A
:10573000FFF7E8F9A3687340BFE7C0230121200009
:105740000C4A5B03FFF7DEF9DAE7C0230A4A5B0184
:1057500001212000FFF7D6F9C023A2685B05534062
:10576000CAE7182301212000044AFFF7CBF9A368F8
:105770006B40BDE70A0001000B0001000C000100B6
:10578000F0B5C646CF0B0D008168040090461E00A0
:1057900000B5FF038F420BD079400B0E64D1FF237D
:1057A0001B04194257D1FF231B02194223D1A760C2
:1057B000802243466D046D0C12022A43012B21D036
:1057C000330001212000FEF795FFC025A3686D0579
:1057D000AB420DD06B401A0E1AD1FF2212041342B5
:1057E00022D1FF22120213422DD1C0235B05A360F8
:1057F00080BCB846F0BD012120001F4A3B0AFFF7DC
:1058000081F9D4E7330001212000FFF77BF9DCE7C1
:1058100018231A4A01212000FFF774F9FF22A36818
:1058200012046B401342DCD0C023154A5B010121F6
:105830002000FFF767F9C023A2685B055340FF22F1
:1058400012021342D1D0C023012120000A4A5B0377
:10585000FFF758F9C9E701212000094A3B0CFFF77F
:1058600051F9A16879409EE70121044A3B0EFFF7F8
:1058700049F9A168794092E70A0001000C00010093
:105880000B000100F8B5CE46474604000D0080B578
:10589000012900D1D4E1D04BC82798463F02C02649
:1058A00041462000FFF7E4FA3A0001212000FEF70C
:1058B000E7FDA3687605B34210D073401A0E00D0FE
:1058C000DBE0FF221204134200D0E3E0FF221202C9
:1058D000134200D0EEE0C0235B05A36041462000E8
:1058E000FFF7C6FA3A0001212000FEF7C9FDC022E9
:1058F000A368520506009146934210D053401A0EF9
:1059000000D093E1FF221204134200D082E1FF2273
:105910001202134200D075E1C0235B05A360F307B8
:1059200000D495E1012D00D18FE1AC4DAC4E31009A
:105930002000FFF79DFA03232A0001212000FFF732
:10594000E1F8C022A36852059146934210D053401B
:105950001A0E00D04CE1FF221204134200D02EE1B7
:10596000FF221202134200D021E1C0235B05A36095
:1059700031002000FFF77CFA2A0001212000FEF709
:105980007FFDC022A36852059146934210D0534038
:105990001A0E00D001E1FF221204134200D0F0E001
:1059A000FF221202134200D0E3E0C0235B05A36094
:1059B00041462000FFF75CFA3A00C027002301218E
:1059C0002000FFF79FF8A3687F05BB4210D07B4003
:1059D0001A0E00D0C4E0FF221204134200D0B3E03C
:1059E000FF221202134200D0A6E0C0235B05A36091
:1059F000C027012001F0A6FC31002000FFF738FA93
:105A000001232A0001212000FFF77CF8A3687F050D
:105A1000BB420FD07B401A0E00D084E0FF2212045C
:105A2000134200D073E0FF221202134267D1C02359
:105A30005B05A36031002000FFF71AFA2A00C02599
:105A400001212000FEF71CFDA3686D05AB420DD0BF
:105A50006B401A0E4AD1FF22120413423AD1FF22A0
:105A6000120213422ED1C0235B05A360012001F076
:105A700069FCC0BCB946B046F8BD1823594A01219B
:105A80002000FFF73FF8FF22A3681204734013427F
:105A900000D11BE7C023544A5B0101212000FFF71E
:105AA00031F8C023A2685B055340FF221202134263
:105AB00000D110E7C023012120004C4A5B03FFF70F
:105AC00021F808E7C02301212000484A5B03FFF7C3
:105AD00019F8C8E7C023444A5B0101212000FFF701
